:1020000000800020E1520000C9520000C9520000C7
:1020100000000000000000000000000000000000C0
:10202000000000000000000000000000C952000095
:102030000000000000000000C952000035530000FD
:10204000C9520000C9520000C9520000C952000024
:10205000C9520000C9520000C9520000CD52000010
:10206000C9520000C9520000C9520000C952000004
:10207000C9520000B16B0000A16B0000C952000002
:10208000C9520000C9520000C9520000C9520000E4
:1020900085510000C9520000C9520000C952000019
:1020A000C9520000C9520000C9520000C9520000C4
:1020B0000000000010B5064C2378002B07D1054B1B
:1020C000002B02D0044800E000BF0123237010BDA4
:1020D000A00200200000000078C00000084B10B5EE
:1020E000002B03D00749084800E000BF07480368F9
:1020F000002B00D110BD064B002BFBD09847F9E711
:1021000000000000A402002078C000009C02002013
:102110000000000070470020704710B5040003F075
:1021200097F9200010BD0000054B10B508330400DE
:1021300008C000F04BFA00232000E36110BDC04648
:102140008CB6000010B5043000F07AFA10BD10B55E
:10215000043000F077FA10BD10B5043000F074FAC6
:1021600010BDC3690133C36118007047C369013BE7
:10217000C361180070470000094B10B50833040014
:1021800003604068002809D0FFF7F0FF002805DC55
:102190006068002802D003685B689847200010BD83
:1021A000A0B6000010B50400FFF7E6FF200003F022
:1021B0004FF9200010BD0000064B10B50833040095
:1021C00003604160002902D00800FFF7CAFF200029
:1021D00010BDC046A0B60000F0B585B004001E00DA
:1021E00054200AAB1F780291039203F02DF90500E9
:1021F0003300039A0299009700F0CAFA29002000E0
:10220000FFF7DAFF200005B0F0BD436810B5181ED7
:1022100001D000F029FA10BD436810B5181E01D096
:1022200000F07CFA10BD40687047704710B504009C
:1022300003F00EF9200010BD10B5024802F0BAF903
:1022400010BDC0468004002010B5024802F04AF9D3
:1022500010BDC0468004002010B5064B81880020C8
:10226000994205D0044802F08BFB431E9841C0B24E
:1022700010BDC046FFFF00008004002010B5040020
:1022800088798AB08B7ACA7A0390C8790290087AE2
:102290000190497A05A80091044907F0B9FD05A904
:1022A000200004F057FC20000AB010BDB0B60000BA
:1022B00010B5044B81887F20994202D0024802F079
:1022C00011FA10BDFFFF00008004002013B50400C8
:1022D00006220021684607F05FF8A288064B00201E
:1022E0009A4207D0A01D0622694607F02BF8431E2C
:1022F0009841C0B216BDC046FFFF000010B58488EB
:102300008A880023944207D106310630062207F05E
:1023100019F843424341DBB2180010BD10B5040068
:10232000074802F047F9236820001B6A98470028F5
:1023300004D0A21DA188034800F026FE10BDC046AF
:1023400080040020C802002010B584888A880123F8
:10235000944207D106310630062206F0F3FF431EF1
:102360009841C3B2180010BD074B10B50833036085
:10237000012304005B42838006220021063007F01F
:102380000BF8200010BDC046D0B6000010B5040008
:102390000800054B11000833A0802360A01D062211
:1023A00006F0DFFF200010BDD0B60000094B10B5CD
:1023B0000833040003604068002809D0FFF7D6FE08
:1023C000002805DC6068002802D003685B68984735
:1023D000200010BD04B7000010B50400FFF7E6FFB1
:1023E000200003F035F8200010BD0000064B10B5AA
:1023F0000833040003604160002902D00800FFF7A1
:10240000B0FE200010BDC04604B7000070B5040047
:1024100030200E0003F018F80500310000F03CFCFD
:1024200029002000FFF7E2FF200070BD436810B5CF
:102430000348002B02D01800FFF784FE10BDC046F1
:1024400093B90000406810B5002801D000F065FC89
:1024500010BD40687047000010B50400024B0360D7
:10246000FFF78AFE200010BD1CB7000010B5040065
:10247000FFF7F2FF200002F0EBFF200010BD00008C
:1024800013B50400002000902000FFF7A5FE024BCA
:102490002000236016BDC0461CB7000010B50968B7
:1024A000FFF7BAFE10BD000010B50400024B036038
:1024B000FFF762FE200010BD2CB7000010B504002D
:1024C000FFF7F2FF200002F0C3FF200010BD000064
:1024D00010B50400024B0360FFF7E6FF200010BDBB
:1024E0003CB7000010B50400FFF7F2FF200002F037
:1024F000AFFF200010BD000010B50400024B0360C8
:10250000FFF73AFE200010BD4CB7000010B50400E4
:10251000FFF7F2FF200002F09BFF200010BD00003B
:1025200010B50400024B0360FFF7E6FF200010BD6A
:102530005CB7000010B50400FFF7F2FF200002F0C6
:1025400087FF200010BD000030B50125040085B0D4
:102550002B000095FFF740FE064B0F212360002360
:1025600069442A0020000B70FFF74FFE200005B0E1
:1025700030BDC0462CB7000010B50400FFF7E4FFE3
:10258000014B2000236010BD3CB700001FB50123A4
:1025900004000093DB18FFF71FFE064B0E2123609B
:1025A00000236944022220000B80FFF72EFE20004A
:1025B00004B010BD4CB7000010B50400FFF7E6FFF3
:1025C000014B2000236010BD5CB70000F0B5002572
:1025D00004000F0085B003AE02C010222900357040
:1025E0007570B57006F0D8FE2575380007F03AFC16
:1025F000451E237D0193002D18DB0F2B16DC7A5D21
:102600002D2A02D10135023DF3E77B19013B1B78EE
:102610007270002110223000337007F0B1FC019B72
:10262000E3181871237D01332375ECE7019B022B1E
:1026300004DC02232000237505B0F0BD1023F9E768
:102640000068704704307047007D7047004870474D
:10265000032800000130C07F7047406A7047806ADD
:102660007047808D70470000436A70B51500040004
:102670000E0092B2AB4200DC9AB2A2853100A06A91
:1026800006F06FFE23002E331B78002B01D0A38CA5
:10269000A385631CDB7F9A060BD5A28E920708D513
:1026A000218EA38D013189B2A26A194800F0E6FC9F
:1026B00070BDDB060BD5A38EDB0708D5218EA38D5D
:1026C000013189B2A26A124800F09CFCF0E72300B5
:1026D00032331B78002B01D10120E9E721000D489E
:1026E00001F008FD0C4C01002B002000320001F02D
:1026F0005FFC074800F03EFC0028EDD1200001F00F
:10270000A5FB0028E8D0200001F0A2FBE4E7C046CA
:10271000C802002014030020EC02002070B5050060
:1027200008000C0007F09EFB210002002800FFF7C4
:102730009BFF70BD01867047008E7047008E013090
:1027400080B27047806B7047826B0023914207D242
:102750000022C36B914202D05B680132FAE71B682A
:102760001800704770B5040008200D0002F06CFEE0
:102770000023436063680560002B05D16060236817
:10278000A0600133236070BDA3685860F7E70000C4
:10279000F8B504001D0006AB16001F78FFF7C4FC57
:1027A00080221A4B920008332360631CDE772B00D3
:1027B000954200DD130063622300002120002E33C8
:1027C000A18510221F704430218619715971A1868C
:1027D000A163E163216406F0DFFD30231E420ED0C9
:1027E0002C2002F031FE2200094902233432060077
:1027F00000F0FEF8200031003830FFF7B3FF28006A
:1028000006F07AFDA0622000F8BDC0466CB700005B
:1028100064B7000070B500250400406823689D423D
:1028200005D24668013502F013FE3000F6E70023BA
:1028300023606360A36070BD70B504000025164B73
:1028400008330360A36B9D4214D20022E36B9542D0
:1028500002D05B680132FAE71E683000FFF786FCA1
:10286000002805DC002E03D0336830005B689847F1
:102870000135E7E7250038352800FFF7CBFFA06AD0
:10288000002801D006F042FD2800FFF7C3FF20001A
:10289000FFF740FC200070BD6CB7000010B50400CD
:1028A000FFF7CAFF200002F0D3FD200010BD00009A
:1028B000F0B5C66C89B0040017000193002E18D043
:1028C0001220104B05AD05938B880622AB8002AB1E
:1028D000C018063106F045FD210003A8FFF76CFC87
:1028E00003A92800B04703A8FFF746FC2800FFF71C
:1028F0009CFCA16A0E9AC919019806F032FD09B034
:10290000F0BDC046D8B60000F0B50D0011000200C1
:10291000040001203332107087B01A002000FFF746
:10292000A3FE276D002F17D012200C4B0622039315
:10293000AB8803AEA91D6844B38006F012FD2100E8
:1029400001A8FFF739FC01A93000B84701A8FFF73B
:1029500013FC3000FFF769FC07B0F0BDD8B60000EB
:10296000032370B51A40838E86B00400934220D0B2
:10297000828653425A411032920082185668002EC5
:1029800017D012200C4B062203938B8803AD06311F
:102990006844AB8006F0E5FC210001A8FFF70CFCC1
:1029A00001A92800B04701A8FFF7E6FB2800FFF7C0
:1029B0003CFC06B070BDC046D8B60000A420800123
:1029C0007047000010B50400034B08330360FFF7A5
:1029D000A1FB200010BDC04680B7000010B5040068
:1029E000FFF7F0FF200002F033FD200010BD0000D3
:1029F00070B5040016001D00FFF796FB8022064B01
:102A00002662083323609200954200DD1500002302
:102A100065622000238570BD80B70000406A704762
:102A2000006A70470185704701207047401A414293
:102A30004841C0B27047401A411E8841C0B2704739
:102A400010B50400034B08330360FFF7EEFB2000D2
:102A500010BDC04694B7000010B50400FFF7F0FFAA
:102A6000200002F0F5FC200010BD000010B5034866
:102A700001F0A0FD024800F07DFA10BD80040020A6
:102A8000C802002010B5024800F08EFA10BDC04602
:102A9000C802002030B505008DB005AC062200212B
:102AA000200006F079FC21000B4801F007FE217898
:102AB000237962790391617807A80291A178019145
:102AC000E1780091054907F0A3F907A9280004F06F
:102AD00041F828000DB030BD80040020B0B60000E1
:102AE00010B50400FFF740FC024B200008332360C0
:102AF00010BDC04694B7000010B5054801F0E2FAD9
:102B0000044801F015FC01211F2003F051FF10BD06
:102B1000140300208004002030B5012187B0050097
:102B20001C2003F0F9FE01211F2003F0F5FE002117
:102B30001C2003F03DFF01211F2003F039FF64201A
:102B400002F03CFC00211F2003F032FF1D4802F080
:102B500035FC1D4C200001F0DFFB002805D12800CA
:102B6000FFF7CAFF002007B030BD642002F026FC4A
:102B7000200001F073FD0028F1D105AB0193122371
:102B80006B4400930D210E2304AA6B44694420007A
:102B900001F06EFD0028E2D101220C4B52422000D0
:102BA00001F0BCFD0028DAD10F2216216A446944E5
:102BB000200001F0BFFD0028D1D1054801F040FB05
:102BC0000120D0E7EE02000080040020FFFFFF3F5D
:102BD0001403002010B50800FFF728FC010002488C
:102BE00001F030F910BDC046EC02002010B50248DB
:102BF00001F02AF910BDC046EC02002010B50248D1
:102C000001F038FB10BDC0461403002010B5024887
:102C100001F01EF910BDC046EC02002010B5040002
:102C2000044801F0C7FC2000034900F0D9F9200056
:102C300010BDC04680040020C802002010B5054C1D
:102C40002000FFF74DFF044A0449200004F0D4FBA4
:102C500010BDC046BC02002000000020412A000038
:102C60001FB50A4901A800F0BBF901A8FFF72EFB28
:102C70007F24002803D001A8FFF71AFB040001A855
:102C8000FFF7D3FA200004B010BDC046C8020020F0
:102C9000A02080017047000010B50400FFF744FA3F
:102CA000054B200008332360002323846384636280
:102CB000A362E36210BDC046C8B70000018442842D
:102CC0007047008C7047408C7047406A7047426A7A
:102CD0000023914207D20022836A914202D05B68AE
:102CE0000132FAE71B681800704770B5040008004D
:102CF0000D00FFF736FA082002F0A6FB0023436020
:102D0000A36A0560002B05D1A062636AE06201330B
:102D1000636270BDE36A5860F7E710B5040008000D
:102D2000FFF781FA011E02D02000FFF7DEFF10BD81
:102D300070B500250400406823689D4205D24668AE
:102D4000013502F085FB3000F6E700232360636065
:102D5000A36070BD70B504000025144B08330360F8
:102D6000636A9D4214D20022A36A954202D05B6836
:102D70000132FAE71E683000FFF7F8F9002805DC99
:102D8000002E03D0336830005B6898470135E7E7D1
:102D9000250024352800FFF7CBFF2800FFF7C8FFE8
:102DA0002000FFF7B7F9200070BDC046C8B700008B
:102DB00010B50400FFF7CEFF200002F049FB200011
:102DC00010BD0000054B10B50833040003604069D6
:102DD000002801D006F09AFA200010BDDCB70000F0
:102DE00010B50400FFF7EEFF200002F031FB2000D9
:102DF00010BD0000F0B5052587B004AC02900F00AF
:102E0000160000212A002000039306F0C5FA0123D2
:102E100023706B461B7B6770237166802B000094C8
:102E200004220299024801F0BFFA07B0F0BDC04683
:102E3000800400200D4B0122083370B5002503608B
:102E40001723040052428380C38145824561058374
:102E50002900C2800732083006F09EFA20002900BF
:102E600008221C3006F098FA200070BDDCB7000084
:102E7000818070477FB504000D00012A16D106003D
:102E800017230836E1800532C3810899300006F027
:102E900068FAE469002C09D03200290001A8FFF784
:102EA00075FA01A8A04701A8FFF7BFF97FBD000090
:102EB000F0B5C38889B004008B4253D102001900D9
:102EC000083202A801920025FFF760FA264E300072
:102ED00001F0E4F8854222D22900300001F005F922
:102EE000036807009B689847204B984214D106223C
:102EF00012201F4B05AE059302AB9B88B38002AB3B
:102F00009918C01806F02DFA380000223100FFF79A
:102F100027FD3000FFF789F90135ADB2D6E7266A03
:102F2000002E11D006221220114B05AD059302ABE5
:102F30009B88AB8002AB9918C01806F012FA2800E3
:102F4000B0472800FFF771F901235B42E3800622B6
:102F50000021019806F020FA002302A8638223834F
:102F6000FFF763F909B0F0BD140300200328000047
:102F7000D8B60000034BC088C018431E9841C0B2A9
:102F80007047C0460100FFFF10B50C001100C28859
:102F90000023A24206D10830062206F0D3F94342AC
:102FA0004341DBB2180010BD10B50B4BC1880400C3
:102FB000994201D1002010BD084801F0E1FC011E3A
:102FC000F8D1012320005B42E3800830062206F09E
:102FD000E3F90120EFE7C046FFFF00008004002076
:102FE00010B50A00064BC9880400994204D0083283
:102FF000FFF7CCF9200010BDFFF7B6F9FAE7C0469D
:10300000FFFF0000F0B587B002AF7A603B60F98146
:10301000C688184A0023964228D06B466A46BB6091
:10302000C4890920E31DDB08DB00D31A9D461B235E
:1030300002AD2B700D3B02226844F91806F091F99D
:10304000033C3A88A4B2944200DD1400220079685F
:10305000E81C033406F085F9E3B200950422310040
:10306000054801F0A1F9BB689D4601231800BD4643
:1030700005B0F0BDFFFF000080040020F0B589B06E
:1030800002AFBA607B60F982C38805003B611A0019
:103090001E4B00269A4235D06B466A46FB60C489B7
:1030A0000920E31DDB08DB00D31A9D461D2302AE79
:1030B0003370073B02226844F91806F052F9033CCA
:1030C000BA88A4B2944200DD14002200B968F01C52
:1030D00006F047F9002303342B74E3B20C4C00963E
:1030E00004223969200001F05FF92E7CF6B2002E2F
:1030F00006D1200001F05EFAEB88044A9342F4D135
:10310000FB689D463000BD4607B0F0BDFFFF0000E4
:1031100080040020F0B50F0085B0022A07D00423F8
:10312000002202213800FFF765FE05B0F0BD1C88C3
:1031300083889C4200DD1C00032503AEC4812A0065
:103140000021300006F028F90D236B441C70240A7E
:103150005C7035702B00009604223900014801F0A4
:1031600023F9E2E780040020F0B58DB002AFBB6127
:103170006B467860B9603B60042A0DD0BA69BB69C0
:1031800052781B7812021A430423B8681900FFF71B
:1031900031FEBD460BB0F0BD6A467B680226DB8976
:1031A0000733DB08DB00D31A9D4602ABFB61052326
:1031B000FA69137000235370BB691A785B781B029D
:1031C0001343013B9BB27B61494C200000F066FF3A
:1031D0007B69834207D2BB699A78DB781B02134371
:1031E0007A69934221DC022E16D1BA69BB69527802
:1031F0001B7812021A4304210A23B868FFF7FAFD6C
:103200003B689D46C5E702233B61013BFB602CE028
:103210000023FB60013328E0FA69F3B20092B96839
:103220000422344801F0C0F8EAE77969200000F090
:103230005CFF7B69050001339BB27B61BB8ABB8469
:1032400003689B6898472C4B984205D12800FFF7EC
:1032500075FA7B698342D6D02800FEF77DFF38617E
:103260000228D5D00023FB600233FA695278002A85
:1032700001D1FA695370FA6952789342B3D1FB696C
:10328000022298192423F91806F06BF8FB68B41C85
:10329000A4B2002B07D12B6828009B689847A42371
:1032A0009B01984215D1FB6928001E19FEF74FFFBC
:1032B0003A690100300006F054F83B69E418A6B200
:1032C0003B697A680233D2899B19934200DC7BE721
:1032D00089E72B6828009B689847FB69F8841819D0
:1032E00026230222F918043606F03BF8B6B2E7E7C7
:1032F000140300208004002003280000F0B58BB0E8
:103300001C006B4602AFF96078603B602178052AAB
:103310000AD86278042312020A43F8680721FFF7EB
:1033200069FDBD4609B0F0BD68467B68DB8907339F
:10333000DB08DB00C31A9D4602AB3B6107233869FB
:103340000370A020637925791B0280012B438342FF
:103350000BD06278237812021A4307210A23F868F7
:10336000FFF748FD3B689D46DBE70125063A93B22F
:103370006278BB6012020A43013A93B27B612D4E20
:10338000300000F08BFE7B69834206D2E378A2789E
:103390001B0213437A6993420ADC012DD9D03A69A2
:1033A000EBB20092F9680422234800F0FDFFD9E750
:1033B0007969300000F099FE036806009B68984721
:1033C000637922791B02134398420ED13000FEF735
:1033D000C3FEBB68984208D13000FEF7B8FEA11DBD
:1033E000BA6805F0AFFF002809D07A68EB1CD289D3
:1033F0009342D2DA7A69013293B27B61BFE730003F
:10340000FFF75FFC3B69B88358191C230222F918A7
:1034100005F0A7FF3000FFF756FC3B69F883A81CB6
:1034200080B218181E230222F918043505F099FFFE
:10343000ADB2DAE71403002080040020F0B58FB0AD
:103440001E006B4602AFB8607961FB60062A07D1A7
:10345000737931791B020B4355495B18012B0DD948
:103460007278337812021A43102319007869FFF733
:10347000C1FCFB689D46BD460DB0F0BD6946BB680A
:10348000DB890733DB08DB00CB1A9D4602AB7B628E
:103490001123796A0B7000234B70737831781B020B
:1034A0000B43013B9BB2FB6102237A603B62414CC0
:1034B000200000F0F3FDFB69834206D2F378B27876
:1034C0001B021343FA69934214DC3B6A022B06D1B8
:1034D0007278337812021A4310210A23C6E7202398
:1034E0007A6AFB181B78009279690422324800F04E
:1034F0005BFFBEE72000F96900F0F7FD75793379CD
:103500002D021D43036804009B689847854249D1FA
:103510002000FEF721FE7B683861BB61022801D0E4
:103520001423BB617B6A5B78002B02D17B6A3A7EF5
:103530005A707B6ABA695B789A42C6D12000FFF75D
:10354000C0FB7B6A3A6AB88598182C230222F918C6
:1035500005F007FF2000FFF7B6FB3B6AF885981CD3
:103560007B6A80B218182E230222F91805F0F9FEA2
:103570003B6A20001D1D7B6AADB25B193B62FEF702
:10358000E6FD3A690100386A05F0EBFE3B69ED188B
:10359000ABB23B623A6ABB699446BA686344D2896B
:1035A000934292DCFB6901339BB2FB617FE7C0462B
:1035B00000D8FFFF1403002080040020F0B58DB078
:1035C0000E00694602AF1400B8603A6C79600A2CAC
:1035D00005D1022B10D004230022210004E0042B8B
:1035E0000AD0042300220C213000FFF703FC7B6883
:1035F0009D46BD460BB0F0BD13883B6100237B6147
:103600000A2C01D053887B615F4D280000F046FDF5
:103610003B69591E8BB2834202D90A233A69DCE71F
:103620006A46BB68DB890733DB08DB00D31A9D469B
:1036300002ABFB600B230A2C00D00233FA6828008F
:10364000137000F052FD036805009B689847A023A3
:103650009B01984215D17B69002B03D004233A6962
:103660000B21C1E72800FEF777FD04002800FEF7D4
:103670006EFD22000100FB680133180005F071FEA9
:1036800062E0424B984261D12800FFF755F83B6950
:1036900083422DD17B69002B01D00B23BEE728008C
:1036A000FEF7D8FFFB6858702800FFF747F8FB6863
:1036B000B883981C1C230222F91805F052FE28003A
:1036C000FEF74AFD04002800FEF741FDFB680100FB
:1036D00004332200180005F044FE0434A3B2FA6853
:1036E000DBB2009231000422294800F05DFE7EE743
:1036F0002800FEF7AFFF022318428FD02800FEF704
:10370000B0FF7B6980B2984201DC072386E7BB6883
:10371000DC897B69013CC01A844200DD04001C2363
:10372000BA6831000832F818FEF730FE1C21FB6839
:10373000A2B20092013328007A697918FFF7B8F82D
:103740001C23F818FEF771FD0134C7E7A4220123FA
:1037500092019042C3D12800FFF760F97B6980B2E3
:103760009842D2DDBB68DC897B69013CC01A844287
:1037700000DD04002800FFF753F9FB687969013385
:10378000A2B2411879E7C0461403002003280000C4
:1037900080040020F0B58DB002AFBB616B4678614C
:1037A000B9603B60062A0DD0BA69BB6952781B78B4
:1037B00012021A4308210423B868FFF71BFBBD4619
:1037C0000BB0F0BD6A467B690224DB890733DB0856
:1037D000DB00D31A9D4602ABFB610923FA69137023
:1037E00000235370BA69BB6955781B782D021D43BD
:1037F000013DADB2824E300000F050FC854207D250
:10380000BB699A78DB781B021343AB4200DD8CE086
:10381000022C00D080E0BA69BB6952781B78120292
:103820001A4308210A23B868FFF7E4FA3B689D466B
:10383000C5E7336830009B689847724B984200D0C8
:10384000DBE0FB69022218192423F91805F089FD31
:103850007B693000DD89FFF7E1F80234A4B22D1B4B
:10386000ADB280B2A84214DD7B69DD892D1BADB2FB
:10387000FB6930001B197B61FFF7D2F801002A00B9
:10388000786905F06EFDFB6964190235A4B25D70BC
:10389000BEE73000FFF7C2F885B2E9E79368300071
:1038A0009847594B984200D0A7E03000FEF754FCEF
:1038B0003861022800D0A0E03000FEF748FCBB6968
:1038C000010004333A69180005F03CFD002800D0DF
:1038D00093E0FB693A6918192423F91805F041FDB2
:1038E0007B693000DD89FEF7BCFE0234A4B22D1BDB
:1038F000ADB280B2A84204DC3000FEF7B2FE85B261
:1039000003E07B69DD892D1BADB2FB6930001B191B
:103910007B61FEF7A4FEB1E7FA69E3B20092B968F1
:1039200004223A4800F040FD80E72900300000F012
:10393000DCFB6B1C9BB2FB60BB890600BB8403688D
:103940009B689847BB691A795B791B0213433268FD
:103950009842A3D19368300098472B4B984200D0EF
:1039600067E73000FEF7EAFEFB68834245D030008F
:10397000FEF7F2FB072378603B61022801D0152394
:103980003B61FB695B78002B02D1FB693A7C5A7082
:10399000FB693A695B789A4200D039E7FB690222F9
:1039A00018192423F91805F0DCFC3000FEF752FE4C
:1039B000FA69A31C9BB2D0542623E01C80B2F918EC
:1039C000023510180222FD84053405F0CAFCFB699B
:1039D000A4B230001D19FEF7BAFB7A680100280076
:1039E00005F0BFFC7B687A69E4183B69A4B2D28910
:1039F000E318934200DD0BE7FD680135ADB2F9E64F
:103A00001403002002290000032800008004002085
:103A1000F0B58BB002AFB8600D0014007B60012BD5
:103A200008D8122A15D10423002221002800FFF70C
:103A3000E1F90EE0BB6B4B481B88FB6000F02EFBEE
:103A4000FB68591E8BB2834206D90A23122C00D17F
:103A500085E0BD4609B0F0BD424800F046FB036872
:103A600006009B689847404B984241D13000FEF7D2
:103A700065FEFB68834201D1122C33D13000FEF782
:103A8000E9FD030767D5BB68DB88AB4214D114237B
:103A9000BA6829000832F818FEF778FC14217B6810
:103AA000BA6B023BDBB2023279183000FEF72CFF12
:103AB0001423F818FEF7B9FB122CCAD16C46BB6868
:103AC0001322DB8929000733DB08DB00E31A9D465C
:103AD00002AB1A70254800930F3A012300F064FCF2
:103AE000A546B6E73000FEF7B5FD4307CBD4B0E7F7
:103AF000336830009B689847A4239B0198422AD1E1
:103B00003000FEF729FB022825D13000FEF71FFB0D
:103B1000174B02889A421ED1FB681248991E00F08A
:103B2000E4FA036806009B6898470F4B984212D14D
:103B3000BB68DB88AB42BFD11423BA682900F818F0
:103B40000832FEF723FCBB6B30005A881423F918A7
:103B5000FEF706FFACE7122C00D07AE70323FA68E1
:103B600063E7C046140300200328000080040020FF
:103B700002290000F0B58BB002AF7B616B460500F7
:103B8000F9613A61BB60032A06D80423002216219A
:103B9000F869FFF72FF975E07A697B6954781B782B
:103BA000D07824021C4393783C4E00021843F860FE
:103BB000300000F073FA611E8BB2834202D90A23EF
:103BC0002200E4E7300000F090FA0368B8619B68D7
:103BD0009847334B984201D00B23F1E7B869FEF7C1
:103BE000ADFD8442F8D1B869FEF734FD030701D476
:103BF0000323E5E76E8A002E49D1B869FEF72DFD53
:103C000001007860686906F0E7F82E8368616C82CD
:103C10007A68310005F0C0FB2B8BFA6893423BD1E8
:103C20003B69B8691E1FF6B293197B60FEF715FD5C
:103C30007B6880B298422FDB6A69FB6894466344D4
:103C400018007B693200191D05F08BFB6A462B8B2F
:103C500009209E19EB8979690733DB08DB00D31A49
:103C60009D46172302AC23703A692E83684405F001
:103C700078FB3B6900940133DBB20422F9690948FF
:103C800000F092FBBB689D46BD4609B0F0BD0E2317
:103C9000B44200D094E7BFE7072391E71403002064
:103CA0000328000080040020F0B589B00D006946AB
:103CB00002AF04007960012A08D0042300221821F1
:103CC0002800FFF797F8BD4607B0F0BD418A0029EC
:103CD0001CD01B78134219D00139184800F005FA9E
:103CE000E3880600AB4211D10C23220029000832E0
:103CF000F818FEF74BFB0C21238B30006269791812
:103D0000FEF702FE0C23F818FEF78FFA00236A462E
:103D100063822383E38929000733DB08DB00D31A9E
:103D20009D46192202AB1A7005480093153A0123EB
:103D300000F03AFB7B689D46C5E7C04614030020AF
:103D40008004002013B50C001978013AD2B2013377
:103D50000C2911D017D8062935D009D802292AD024
:103D600004292CD0062300222000FFF743F825E089
:103D700008292CD00A29F5D1009313000A0021004C
:103D8000FFF71CFC1AE0162929D00AD8102922D0E6
:103D90001229E7D1009313000A002100FFF738FE33
:103DA0000CE01E291FD05229F4D01829DAD12100A5
:103DB000FFF77AFF02E02100FFF7ACF913BD210005
:103DC000FFF7D2F9FAE72100FFF798FAF6E72100AA
:103DD000FFF7E0FCF2E72100FFF730FBEEE7210000
:103DE000FFF7C8FEEAE701230374E7E710B5054CC7
:103DF0002000FFF71FF8044A0449200003F0FCFAF2
:103E000010BDC046C802002000000020C52D0000E3
:103E1000704710B5040001F01BFB200010BD00002E
:103E2000074BA02208330360002302839F3A0371EB
:103E30008360C360036143618276036243627047BB
:103E4000ECB70000816070474161704700797047AE
:103E5000F0B59BB0040008AD06220021280005F053
:103E60009BFA0022A17E1300914203D1636959425B
:103E70004B4102330720218B22710492039001925F
:103E8000009202950A00494800F078FC002802D010
:103E900000201BB0F0BD02230AAE337006270123B9
:103EA000A1687370B77000296FD012A8FEF78EFB5F
:103EB00012A8FEF7C9FB431C0500F370022800DCC2
:103EC000043F12A83771FEF7BDFB2A000100252030
:103ED00002ABC01805F045FA0535EDB2236A06932A
:103EE000002B1FD0676A002F1CDDFB1CAB4219DAC8
:103EF00016222100FBB2079303337355A81C6B1CD9
:103F0000DBB2C0B20435F2541C31143AEDB23018B1
:103F100005F027FA70193A00069905F022FA079B76
:103F20005D19EDB2214F0AAA2900380000F04AFCC1
:103F30000028ADD1656912AE291E15D0280005F004
:103F400091FF02001D282DDD08231D2273704220E1
:103F5000D3B206930133337002AB2900C01805F0C9
:103F600000FA069B9D1CE9B23200380000F046FCC6
:103F7000002800D08CE70121380000F05BFC00280D
:103F800000D085E72071013083E7E168032500292F
:103F9000A4D02269002AA1D0D5B26B1CF370FF23F4
:103FA000337194E709237370D1E7C0468004002081
:103FB000818302624362704710B5054C2000FFF711
:103FC0002FFF044A0449200003F016FA10BDC04632
:103FD000EC02002000000020113E0000F0B50400BB
:103FE00000270600224B1034083387B00360476077
:103FF0008760C7601F492000FEF74EFE3300403344
:1040000003930097142302221B490398FEF7C0FB79
:1040100033009433049335000223E8351A000097E7
:1040200016490498FEF7B4FB15492800FEF734FE44
:1040300033001933FF3305932022042311490097DD
:104040000598FEF7A5FB2000FEF78BF82800FEF789
:1040500088F803992000FEF748FE04992000FEF737
:1040600044FE28000599FEF740FE300007B0F0BD81
:1040700020B8000004B8000009B800000EB8000025
:1040800013B8000018B8000007B56B46D980063396
:10409000943002221900FEF7E7FA07BD4068704726
:1040A00070B500250400406823689D4205D246682B
:1040B000013501F0CDF93000F6E70023236063609D
:1040C000A36070BD10B50430FFF7EAFF10BD0268B1
:1040D00000238A4207D9002243688A4202D05B68E3
:1040E0000132FAE71B681800704710B50430FFF77B
:1040F000EEFF10BDF7B5002507002C0001917B688D
:104100009D420ED22900381DFFF7E1FF036806002B
:104110009B689847A0239B0198420DD0019BB34216
:104120000BD1201E07D0FEF717F8022807D1200078
:10413000FEF70DF80088FEBD34000135DFE72000F2
:10414000FEF705F84089F6E770B5060000247368AD
:10415000301D9C420FD22100FFF7B9FF0500FEF78A
:1041600005F8002805DC002D03D02B6828005B68CB
:1041700098470134EBE7FFF793FF70BD70B504007B
:1041800008200D0001F060F90023436063680560BA
:10419000002B05D160602368A0600133236070BDEF
:1041A000A3685860F7E7F0B506000D00002785B05A
:1041B0000800FDF7D6FF331D180029000193FFF713
:1041C000DDFFB38803932800FEF77FFD87422ED2E0
:1041D00039002800FEF77BFD0400FDF7C2FF210037
:1041E0000198FFF7CBFFB1882000FEF7A3FA21006A
:1041F0000198FFF7C3FF002320000093FEF7A2FA07
:10420000009B834211D219002000FEF79DFA029014
:10421000FDF7A7FF02990198FFF7B0FFB188029858
:10422000FEF700FC009B0133E6E70137CBE772683D
:10423000039992B22800FEF741FD05B0F0BD0000E1
:1042400010B504000A494030FEF768FA002120004A
:10425000FFF71AFF2000FFF777FF21002000103141
:10426000FFF7A1FF21002000E831FFF79CFF10BD00
:10427000FCB7000010B504000800FEF7EAF8011EC4
:1042800002D02000FFF78FFF10BD000010B5054CD5
:104290002000FFF7A3FE044A0449200003F0ACF815
:1042A00010BDC0461403002000000020B1420000F1
:1042B00010B504000F4B08330360FFF745FF2000E3
:1042C0001930FF30FEF7B8FA2000E830FEF742FD63
:1042D00020009430FEF7B0FA20004030FEF7ACFA30
:1042E00020001030FEF736FD201DFFF7D9FE20001C
:1042F00010BDC04620B8000010B50400FFF7D8FF7D
:10430000200001F0A5F8200010BD704710B5040092
:1043100001F09EF8200010BD002310B58360034B10
:10432000186803681B68984710BDC0468CB8000029
:10433000034B10B5186803685B68984710BDC0460A
:104340008CB80000FF30002A05D0837F934202DD45
:104350009B1A837770470023FBE70000F7B5050041
:1043600040681700019300281BD001F09EF800243C
:10437000BC420FDA019B1E5D0F2E03DC0949686801
:1043800001F093F8102231006868013401F0E5F87B
:10439000E4B2EDE7686801F08DF868680368DB68EF
:1043A0009847F7BD07B80000F0B504001D0085B0C0
:1043B00000AFB9607A602300FF339A7F5B7F9A4237
:1043C00003DB200000F0F6F8F5E72B006A46103317
:1043D000DB08DB00D31A9D46FB606A46022313709C
:1043E0003B7A01321370BB6809201B0A53706A467E
:1043F0002B1DDBB2D370002313716B46AAB25A7126
:1044000000229A716B46DA1DBB882E0013700023C0
:1044100068445370B96A2A0004F0A3FF6368093640
:10442000002B05D0F2B26B4609492000FFF796FF3A
:10443000FF34A37F32000133A377064BF968186875
:1044400003689B6998470020BD4605B0F0BDC04693
:1044500030B800008CB80000F0B5D77993793F02EE
:1044600087B0050014001F43042F0DD103006178AD
:10447000207809020143090515331279090D1748FF
:10448000FFF760FC07B0F0BD052F0CD10300617889
:10449000207809020143090515331279090D1048E6
:1044A00000F082FBEEE703AE0A220021300004F0A8
:1044B00073FF01233370053373806178043BB3804D
:1044C0002378090219430905F780090D00960A238C
:1044D00005222800FFF768FFD4E7C046C802002085
:1044E000AC05002070B504002F4D002903D02868CA
:1044F00003689B6898472E6833683000DB689847EC
:10450000002850D0336830005B699847A368C1B277
:104510005A1CE318A2601973237B022B1DD1052AB4
:10452000E9DD237CE17B1B025B1804339A42E2DD68
:104530006368002B06D02300D2B20C331B49200045
:10454000FFF70CFFA3682200591E0023C9B2A36025
:104550000D322000FFF780FFCDE7042B1AD1032A8C
:10456000C9DDA37B02339A42C5DD6368002B06D008
:104570002300D2B20C330E492000FFF7EFFEA368F0
:104580002200591E0023C9B2A3600D32200000F0A2
:104590005DF9B0E700236068A3609842ABD01022B9
:1045A00000F0DFFFA7E770BD8CB8000056B8000030
:1045B00069B8000010B50021FFF794FF10BD00009E
:1045C000F7B5040010000D0069460B30C008C000AC
:1045D000091A00AF8D46796068460121017069466D
:1045E0004570280A8870694601A8CA701900161D0E
:1045F00004F0B7FE6368002B05D0F2B26B46154994
:104600002000FFF7ABFE144B32001868796803688E
:1046100026009B6998472300FE337B6001237A685C
:104620005B42FC361382736100F092FE38607B6857
:104630001B8AAB420BD000F08BFEFA223B68920043
:104640009B18984203D22000FFF7B4FFEFE7BD4666
:104650007069FEBD43B800008CB80000002310B59F
:104660001A000249FFF7ACFF10BDC046030C000062
:10467000F8B51C0000230E0015000F491A000700B2
:10468000FFF79EFF002816D1FC37FB691A783270BD
:104690009A78597812020A432A80DA7822705A7975
:1046A000197912020A4306990A809A79DB791B026A
:1046B0001343079A1380F8BD01100000002370B562
:1046C0001A000E0006490400FFF77AFF051E05D107
:1046D000FC34E1690622300004F043FE280070BD7E
:1046E0000910000037B56B469D1DD98002220A498A
:1046F0002B000400FFF764FF7F2100280AD1FC345F
:10470000E2692888537814781B022343984201D128
:104710000221515608003EBD0514000007B50449AA
:10472000009201936B460822FFF74AFF0EBDC04678
:10473000010C0000F8B500230E0017000D491A0007
:104740000500FFF73DFF041E11D12B00FC33DA6991
:10475000FF35537811781B020B433380937806485A
:104760003B706B773188093989B2FEF781FB2000F5
:10477000F8BDC04602200000C8020020F0B585B098
:104780009C466B465A80624604000AA807780BA82C
:1047900000780DAD2E7819801A7198710C990EADB4
:1047A0000622D81D2D785F7104F0DBFD6B460F22C9
:1047B000034920005E739D73FFF702FF05B0F0BD53
:1047C00006200000F0B5202489B00D000600170077
:1047D00000212200684604F0DFFD6B462A00390004
:1047E000581C1D7004F0BDFD6B46220002493000CC
:1047F000FFF7E6FE09B0F0BD08200000F0B5202468
:1048000089B00D000600170000212200684604F060
:10481000C3FD6B462A003900581C1D7004F0A1FD31
:104820006B46220002493000FFF7CAFE09B0F0BD16
:104830000920000007B56B460733197001220249B1
:10484000FFF7BEFE0EBDC0460A200000F0B513788B
:1048500087B00400052B10D1941C61785279394837
:10486000FEF726FB61783848E27800F04DF9012127
:104870003648FFF7DFFF07B0F0BD0E2B10D11379DC
:10488000D0781B0203432000FE30038253790238A4
:1048900043615378FF34043B06326375C261EAE733
:1048A000132B0DD100259678D71CB542E3DA7A8810
:1048B000398820000135FFF745FD0437EDB2F4E7F4
:1048C0003E2BD8D19378012BD5D1D378D51C002B92
:1048D000D1D108321400A978687809020143687CB4
:1048E0002B79EA780490287CEE7B00023043039019
:1048F000A87B6E7B000230430290287BEE7A000298
:104900003043019000940F48FEF7B4FAA978687814
:1049100009020143687C2B79EA780490287CEE7BBD
:10492000000230430390A87B6E7B0002304302906C
:10493000287BEE7A0002304301900094024800F098
:10494000B7F898E7C8020020AC05002080040020DA
:104950007FB56E46B380042308AC258809AC248853
:104960007381023331807280B3810E226B4603491A
:10497000F5803481FFF724FE04B070BD13200000E1
:10498000F7B5032501AC06000F002A000021200026
:1049900004F002FD13232A00A37030002300024913
:1049A0002780FFF70DFEFEBD060400000748084BF8
:1049B0000200083310B503600023FF3293770549E6
:1049C000054A4360836002F017FD10BD800400209B
:1049D0007CB800000B4300000000002070474368D3
:1049E00010B51A688168D26918009047012010BD7F
:1049F00010B5406803685B6A984710BD10B5406801
:104A000003681B69984710BD10B5406803689B692F
:104A1000984710BD10B5406803685B69984710BDA2
:104A200070B50400406803685B68984705006068DB
:104A30000368DB689847280070BD10B5040000F0DB
:104A400007FD200010BD70B504000E0000F080FCD2
:104A5000050000F07DFC401BB04205D22368200019
:104A6000DB6898470028F4D070BD0000064B07486B
:104A700010B508330360064B064A4360064B0749EE
:104A8000836002F0B9FC10BD90B80000A0050020C2
:104A9000400E002000000020D8EC0D00DD49000091
:104AA000704710B5040000F0D3FC200010BD0000DA
:104AB000F0B587B00DAB0F001B88012A20D1868886
:104AC000002E1DD0C588002D1AD0B34201DBAB42A9
:104AD00016DD03AC0C220021200004F05DFC122343
:104AE0002370113B637007336380C0336381A680FA
:104AF000E580BC3B0094052239000248FFF754FCD6
:104B000007B0F0BD8004002070470000F0B587B00A
:104B100007000E0003920C9C072B41D904AD002125
:104B20000622280004F038FC13232B70113B6B8005
:104B30006B461B7B6B70B988002910D0FA88002A5D
:104B40000DD0637820781B0203438B4205DBE378AA
:104B5000A1781B020B43934201DD0123AB80114F6F
:104B600006230095052231003800FFF71DFCAB88B5
:104B7000002B15D1E378A2781B02134362782178C9
:104B800012020A43E179A079090201430191617996
:104B9000207909020143009138003100FFF7D8FE67
:104BA00007B0F0BD8004002037B5032A10D9DC78A7
:104BB0009D7824022C43251DAA4209D11A78122A75
:104BC00006D15A78E4B2043300932300FFF79EFF26
:104BD00037BD0000064B0748083310B503600023BB
:104BE000054A06498380C38002F006FC10BDC0461A
:104BF000BCB80000AC05002000000020A14A000065
:104C0000962110B50F4C8901200000F041FE2000D4
:104C100000F040FE0028FAD00B48FDF77DFF002889
:104C200004D10A49200000F057FCFEE7084800F0D4
:104C3000AFF8084800F08AF90749200000F04CFC62
:104C400010BDC0462C060020BC020020FFB80000AA
:104C5000C4050020F005002014B9000010B586B08E
:104C600068461C49FDF7DAFF6846FDF72FFB002870
:104C70002AD0194C1949200000F017FC694603A8F6
:104C8000FDF7FCFA03A9200000F01CFC03A801F0CA
:104C900019FF6846FDF742FB002806D0104800F0D7
:104CA00029F9104800F0FEF9F3E70F49200000F061
:104CB000FCFB694603A8FDF7E1FA03A9200000F018
:104CC00001FC03A801F0FEFE6846FDF7AEFA06B04F
:104CD00010BDC046BC0200202C060020CCB800004D
:104CE000C4050020F0050020E3B8000010B5040062
:104CF0008068002802D003685B689847E068002855
:104D000002D003685B68984710BD10B50400FFF738
:104D1000EDFF200010BD0000002310B50348044A39
:104D200004490360436002F067FB10BDB405002036
:104D3000000000200B4D00000122014B1A7070474B
:104D4000C4050020002310B50400437043600381B4
:104D50004381838103700349034800F02FFA200048
:104D600010BDC04640420F001406002043788373F4
:104D700043681A0EC2731A0C027483741A0A0389E8
:104D8000427403751A0A0023C27443757047000009
:104D90007FB50400082000F057FB05002C49FDF703
:104DA00035FBE561082000F04FFB012605000723D5
:104DB000009610222749FDF70FFA2562082000F01F
:104DC00043FB050002222449FDF7F6FB656208203B
:104DD00000F03AFB050002222049FDF7CDFBA56259
:104DE0001F4D20492800FDF701FF2800E169FDF76C
:104DF000F1FE216AE069FDF725FB616AE069FDF7D4
:104E000021FBA16AE069FDF71DFBE1692800FDF7C0
:104E1000F5FE2000FFF7AAFF210032000E31206AC4
:104E2000FDF7F3F90E21002369444E700B70022246
:104E3000606AFDF7EAF90D210C2369443200A06A8B
:104E40000B70FDF7E2F92800FDF7E0FE7FBDC046DC
:104E50002FB9000034B9000039B900003EB9000094
:104E6000BC02002043B90000802210B50400436852
:104E7000D2000133436003899B180381FFF776FF5B
:104E8000210007220E31206AFDF7BFF910BD10B5D1
:104E90000400C069002802D003685B689847206A54
:104EA000002802D003685B689847606A002802D037
:104EB00003685B689847A06A002802D003685B68B3
:104EC000984710BD10B50400FFF7E1FF200010BDAA
:104ED00010B5054C2000FFF735FF044A04492000B7
:104EE00002F08AFA10BDC046C40500200000002070
:104EF000C54E000070B543780400002B09D10E4D5B
:104F0000013343700D49280000F010F9280000F02B
:104F10009FF90B48FDF790F96378012B0BD12378AB
:104F2000002B08D0002307492370074800F0BDFA82
:104F30002000FFF799FF70BD14060020394D0000D6
:104F4000BC02002032BE00002C0600207FB5040009
:104F5000082000F079FA05003149FDF757FA25607D
:104F6000082000F071FA05000E2302222D49FDF7FA
:104F700087FA6560082000F067FA05000523022221
:104F80002949FDF77DFAA560082000F05DFA0500CB
:104F9000092302222549FDF773FAE560244D2549CE
:104FA0002800FDF723FE28002168FDF713FE616845
:104FB0002068FDF747FAA1682068FDF743FAE16829
:104FC0002068FDF73FFA28002168FDF717FE6668A4
:104FD000194901A801F0BEFD01A93000FDF75EFAF4
:104FE00001A801F06FFDA668144901A801F0B2FD07
:104FF00001A93000FDF752FA01A801F063FDE46851
:105000000F4901A801F0A6FD01A92000FDF746FA0D
:1050100001A801F057FD2800FDF7F8FD7FBDC0464F
:105020004CB9000051B9000056B900005BB900004E
:10503000BC02002060B9000072B9000081B9000014
:1050400087B9000010B504000068002802D003688A
:105050005B6898476068002802D003685B689847DF
:10506000A068002802D003685B689847E0680028C1
:1050700002D003685B68984710BD10B50400FFF7C5
:10508000E1FF200010BD000010B5034A03490448A9
:1050900002F0B2F910BDC046000000207B500000B5
:1050A000F005002010B50248FDF7C6F810BDC04657
:1050B000BC02002010B504230400062063602060B9
:1050C000012101F029FC6068002101F025FC20008D
:1050D00010BD10B504008068002802D003685B682A
:1050E0009847E068002802D003685B689847206909
:1050F000002802D003685B68984710BD10B5040013
:10510000FFF7E7FF200010BD10B5054C2000FFF7AA
:10511000D1FF044A0449200002F06EF910BDC046D8
:105120000006002000000020FD50000070B50400C3
:1051300008200D0000F088F900234360A368056093
:10514000002B06D0E36858606368E0600133636059
:1051500070BDA060F8E770B5050000244668B44251
:105160000ED06A680023944207D20022AB689442B2
:1051700002D05B680132FAE71B6898470134EEE71A
:1051800070BD000010B50448FFF7E5FF1023034A87
:10519000917B0B43937310BD140600200034004232
:1051A0000122054B1A80DA7B52B2002AFBDB1A88F7
:1051B000D207FCD47047C0460034004270B50400EA
:1051C0001D4B1E4A01605A805A78D209FCD120003A
:1051D000FFF7E6FF1A4B1A8892B21A80202219882C
:1051E0000A431A801988174A0A432E211A80226816
:1051F0004A4392B21A83DA7B52B2002AFBDB802147
:1052000011484903114AC167BFF34F8FBFF36F8F36
:10521000C020C524FF2540001150A4001059A84308
:10522000105111601022597B0A435A73DA7B52B233
:10523000002AFBDB70BDC046000C00401C40000093
:10524000003400420207000004E100E000E100E059
:105250000222044B19880A431A80DA7B52B2002AD0
:10526000FBDB7047003400420221044B1A888A435A
:105270001A80DA7B52B2002AFBDB7047003400420E
:1052800070B504000025FFF7EFFFA0686368AB422C
:1052900005D94668013500F0DBF83000F6E720005C
:1052A00070BD0000002310B50448054A43608360C8
:1052B000C3600449036002F09FF810BD140600208B
:1052C000000000208152000003BEFEE7034B10B532
:1052D0001B68002B00D0984710BDC0462406002054
:1052E00070B50F490F4CA14204D100F08FF900F0C6
:1052F0008BF8FEE70C4D00238D42F6D0CA18E81853
:10530000A24205D39042F0D0084B0949002204E0A4
:10531000006804331060F1E704C38B42FCD3E4E778
:1053200000000020A00200207CC00000A00200209D
:10533000B010002010B500F064F8002801D100F092
:1053400055F810BD014B18607047C0462406002078
:10535000014B18687047C04628060020F7B513486F
:10536000012284461249134C8E68636805689B0EBF
:105370001340019288686268019F920E3A40674626
:105380003F6893420ED1BD420CD186420AD35B19CD
:10539000FA254868AD00861B07486B437043000D33
:1053A000C018FEBD3D0013000600E3E728060020FC
:1053B00010E000E000ED00E05555000070B5041E5F
:1053C00010D0FFF7CBFF050000F01AF8FFF7C6FF7B
:1053D000054B401B9842F7D9FA23013C9B00ED187E
:1053E000002CF3D170BDC046E703000010B5034A9E
:1053F00013680133136000F0CDF810BD28060020BB
:10540000704700207047000010B501F0DBF903F091
:105410004BFF01F0B2FB0120FFF7D0FF084C20004A
:1054200000F0B4FC200000F011FDFFF7E9FBFFF7EE
:1054300015FC044B002BFAD000E000BFF7E7C04694
:10544000480600200000000010B503F055FF10BD15
:1054500010B503F05BFF10BDF7B506000D000C00A2
:105460008B180193019B671B9C4207D033682178FE
:105470001B683000984701340028F3D13800FEBD86
:1054800070B505000C00081E07D004F0EBFC2B687B
:1054900002005B6821002800984770BD10B50368C2
:1054A0008A685B680968984710BD10B5FFF7E8FF88
:1054B00010BD000010B50249FFF7E2FF10BDC04665
:1054C00091B9000070B50500FFF7E8FF040028005F
:1054D000FFF7F0FF201870BD70B50400FFF7D0FF94
:1054E00005002000FFF7E6FF401970BDF0B516007B
:1054F00000228DB002AB053301900D00DA77012E4A
:1055000000DC0A260BAC2800310002F00DF80F0079
:10551000CBB228003100009301F080FFFBB237339B
:105520000500013CDBB2092F02D8009B3033DBB20F
:105530002370002DE7D121000198FFF7A1FF0DB0E6
:10554000F0BD10B5002A04D10368C9B21B689847A2
:1055500010BDD2B2FFF7CAFFFAE710B5FFF7F1FFAF
:1055600010BD70B50400FFF7ECFF05002000FFF749
:10557000A1FF401970BD0000014B18607047C04684
:10558000040000200122024B52421A607047C046BC
:1055900004000020164A10B51368591C27D0013B9F
:1055A0001360002B23D172B6124B134A043393427B
:1055B00008D8BFF34F8F114A114BDA60BFF34F8FFA
:1055C000C046FDE70F4A01211000147D0C42FCD0BB
:1055D0002021148BFF319B085B0021431183D36191
:1055E000094B13800123027D1A42FCD0E1E710BD74
:1055F0000400002000200000030200000400FA055F
:1056000000ED00E00040004102A5FFFF1E2270B542
:1056100046484749436893431C3A13434360082371
:105620008C6923438B61434C434B9C829C8A14437B
:105630009C82DC681442FCD00124404A1470157826
:10564000254203D055786DB2002DF8DB012494601B
:10565000547864B2002CFBDB394C5460547864B24B
:10566000002CFBDB8224E4015480547864B2002CCB
:10567000FBDB02249C840E34DD682542FCD0314CD7
:10568000DC621024DD682542FCD09D8C2E4C2C431E
:105690009C841024DD682542FCD002249D8C802649
:1056A0002C439C844024DD683542FCD0DD682542D3
:1056B000F9D01024DD682542FCD000249460547891
:1056C00064B2002CFBDB214C5460547864B2002C93
:1056D000FBDB1C6A1E4D2C4080251C621C6AAC43FF
:1056E0001C62032393601B4B536053785BB2002B07
:1056F000FBDB0023FF240B72174A4B728B72CB72B9
:10570000164B1A60164B174A1B6811689A065B0104
:10571000C90E2340520F12020B431343124A138542
:10572000802342681343436070BDC046004000417F
:10573000000400400C06000000080040000C00407F
:1057400001050100B905FF7D040A00000007030000
:10575000FFFCFFFF03060100006CDC028400002058
:105760002460800020608000004000423F2070479D
:1057700013B56B460268D9710733546819000122CA
:10578000A04716BD10B50221006900F047FC10BD0E
:1057900010B50321006900F057FC10BD10B51300CF
:1057A00004000A000069032100F03AFD002801D13D
:1057B0000123636010BD000010B5054C23685A1C1E
:1057C00004D103685B69984703002060180010BD8E
:1057D00058000020074B0200186810B5411C03D088
:1057E000012252421A6010BD0221106900F00AFD28
:1057F000F9E7C0465800002010B503784222023372
:1058000003700249024800F0ABFD10BD14000020F7
:105810004806002010B50178030042780020A12935
:1058200008D1212A05D11A3A1649174800F098FDE7
:10583000012010BD2129FCD1202A11D1193A11498A
:10584000114800F045FC96220E4BD2001968914297
:1058500003D10124D87904400ED0FFF793FE0EE067
:10586000222A03D19A78074BDA71ECE7232AE0D198
:105870005A88064B1A60DCE7FA20FFF77DFE00200D
:10588000D7E7C0460C000020480600200800002092
:105890007047000010B5FFF75BFDF423FF330024D1
:1058A000984207D9044B0A20DC79631E9C41E4B27C
:1058B000FFF784FD200010BD0C000020FA2200211B
:1058C000054B92009A60054A596008321A60044AF2
:1058D00019761A617047C0462C06002094B9000062
:1058E0004806002030B50F25CB1D013902002A40A3
:1058F000140000093034092A01DD373214001C700D
:10590000013B8B42F2D130BD10B50400806903F039
:10591000FDFCA06A03F0FAFC200010BD10B50400E5
:10592000FFF7F2FF2000FFF793FD200010BD0000FD
:1059300070B582291FD1C3B22C4D5A01AA189169A2
:105940002B4C80010C40C0218905214391612949DC
:1059500008330818802150612A685B01D018047947
:105960004942214301717020995C81430800302134
:105970000143995470BD0029FCD1C024C1B21B4E13
:105980004B01F3189A681A4DA4052A4022439A60E5
:10599000194A800110180A0058603068072608323A
:1059A0005201115CB1430E00012131431154996938
:1059B0000D402C439C6170240E495961115CA14338
:1059C0000C0010212143115499680C4C82180C4092
:1059D00080214903214399609968890B8903996063
:1059E000402351790B435371C4E7C046000B00209C
:1059F000FFFFFF8F7406002034080020FF3F00F0F7
:105A000070B50400012320CC00212A782000134324
:105A100080222B70520003F0BFFCAB78DB07FCD474
:105A20006C6270BD1F22144B70B51B68590B9C0C27
:105A30009B0111405B0F22401F2900D11A391F2AF8
:105A400000D1023A072B00D1043B1F2500688E01CC
:105A5000048D0A492A40214031430185018D1400FB
:105A60000A00AA4322430285028D1903044B134006
:105A70000B43038570BDC046246080003FF8FFFFE4
:105A8000FF8FFFFFEFF3108303600123436072B6C3
:105A900070470368002B02D162B6BFF36F8F704767
:105AA00037B5056904006846002D14D1FFF7EAFFF9
:105AB000019B621D013B02D3D57FEDB2FAE7684638
:105AC0000193FFF7E6FF002D01D100203EBD206AC3
:105AD000E369C01AFAE7FFF7D5FF22000025019B12
:105AE0003432013B02D31578EDB2FAE768460193F0
:105AF000FFF7CFFF002DE8D0206BE36AE9E7000055
:105B0000F0B501254668037A31685A018C18FF34D4
:105B1000A77AB2183D43A572C468094D9068A404E1
:105B2000284024092043906090680833800B80034C
:105B3000906040225B01CB1819790A431A71F0BDBD
:105B4000FF3F00F0F7B5036904000E001700684638
:105B5000002B3DD1FFF796FF019B611D013B5A1CB5
:105B60000CD0CD7F5A1EEDB2002D05D168460193B1
:105B7000FFF78FFF2800FEBD1300F0E76846019392
:105B80000025FFF786FFE369AF4202D0226A934205
:105B900057D3226A9342EDD10023E361013323619D
:105BA0006846FFF76FFF22000021019B671D013B44
:105BB0003532581CDAD0F97710785E1E002805D0EF
:105BC000117020000193FFF79BFFECE73300F0E733
:105BD000FFF758FF2100019B3431013B5A1C06D0CE
:105BE0000D785A1EEDB2002DC0D01300F6E76846BE
:105BF00001930025FFF74DFFE36ABD4202D0226BFF
:105C0000934226D3226B9342B4D100236846E362C9
:105C10002361FFF737FF270022000021019B343763
:105C2000013B3532581CA1D0397010785E1E002817
:105C300005D0117020000193FFF762FFEBE73300FE
:105C4000F0E75A1CE261A269D3181B78735501353D
:105C500099E75A1CE262A26AD3181B787355013582
:105C6000CAE7F7B5027A43681100040008311868E2
:105C700049014118C879C00727D501255201CD71C6
:105C80009B189A6861699204920C002921D12262C2
:105C9000226A002A3ED0A26A656168465A60FFF710
:105CA000F1FE27002100019B661D013B3437353191
:105CB0005A1C2BD0F5773A78581ED2B2002A05D05C
:105CC000019368460D70FFF7E4FEF7BD0A7003000C
:105CD000EEE72263226B002A1CD000226261A269D7
:105CE00068465A60FFF7CEFE26002100019B34363D
:105CF000013B671D35315A1C08D03570FA7F581E9C
:105D0000D2B2002ADCD10A700300F4E7684601939E
:105D1000FFF7BFFE2000FFF7F3FED6E737B56B466F
:105D2000DC1D00230D0020002370FFF765FD2B68AC
:105D30001818286001F04EFB210001F007FB2B68CA
:105D40001818286020783EBD03290ED180220E4B02
:105D500062311B68FF31585C524202435A54682238
:105D60006339FF39FF32995470470129FCD18022F1
:105D7000054B24311B68FF31585C524202435A5490
:105D80002339FF392822EDE7000B0020202370B5CE
:105D9000254A0400D1690F200B43D3610122234916
:105DA0000B7813430B70224B19788143197006212D
:105DB0001D78294319701F490D782A430A701A78F3
:105DC00002401A70602219780A431A701A4B1B4A53
:105DD0005A805A78D209FCD11948FFF7B3FA194D05
:105DE0002800FFF70DFE2800FFF71CFE7F212B681F
:105DF000C1201A7880000A401A70042219780A43D8
:105E00000C211A701A898A430F491A810A58120202
:105E1000120A0A5080220A6019787E3A0A431A70E0
:105E20000123237070BDC046000400405844004167
:105E30003C44004159440041000C00400640000031
:105E4000A5670000000B002000E100E000780028BA
:105E500010D00121084B1B681A898A431A81082235
:105E6000198B0A431A830422198B0A431A830022CE
:105E7000024B1A607047C046000B0020F80A002051
:105E800010B50F4A93699B0B9B0393611368022221
:105E9000FF331A729879823A02439A711A7A9207FA
:105EA000FCD57F24074A2140937A0800A3431900B8
:105EB000802301439172917A5B420B43937210BD30
:105EC000000B00200050004110B50B790C00002B96
:105ED0000CD10800FFF79EFC002801D0012010BD66
:105EE000094A93699B0B9B039361F7E701F072FAF0
:105EF000210001F05EFA0028F0D1034A93699B0B60
:105F00009B039361EBE7C046000B0020F7B50D0043
:105F1000832A19D1CBB2334C5A01A2189169324865
:105F2000AD010840C0218905014391612F492068D6
:105F30004D197021083355615B011A5C8A431100C9
:105F400040220A431A54F7BD022A45D1284A8B0041
:105F50009858002802D003681B6998473820FFF73B
:105F600073FA244B8027036000231E4E7F00421DDE
:105F7000036203614361C36146608560C760D37794
:105F80002F32C3620363040013703800537003F0B0
:105F9000B3F90190A061380003F0AEF9EBB25A01F9
:105FA000A062B2189168104808330840C0218905E2
:105FB00001439160316807265B01585CAD00B04336
:105FC0000600032030435854019B20005360FFF724
:105FD00097FD074B5C51B6E711002800FFF7A8FCBE
:105FE000B1E7C046000B0020FFFFFF8F74060020C2
:105FF0004C060020C0B9000070B505000124064B16
:10600000A200D258002A05D021002800FFF77EFF09
:106010000134F4E770BDC0465C000020084B8A00E4
:10602000D05810B5002803D003689B68984710BD6E
:10603000C9B2044B4901591888688004800CF6E7FE
:106040004C060020000B002010B50C00FFF7E6FF07
:1060500000280CD0064BE4B21B68083464011C19FC
:10606000802362795B42134363710223E37110BDA5
:10607000000B002070B5134BCCB2134A60018901AC
:106080005918131859609968104D08340D40802133
:1060900089022943402599609968890B8903996091
:1060A00011686301CB181E7935431D719D796D060A
:1060B000FCD564010919CB79DB07FCD5121890686F
:1060C000C0B270BD34080020000B0020FF3F00F07C
:1060D00070B5140040220B4B0D001B68FF3359793B
:1060E0000A435A710021FFF7C5FFA04200D92000E2
:1060F00000230549A34203D05A5CEA540133F9E76F
:1061000070BDC046000B00203408002010B5C9B295
:106110000B484901421893689B049B0C3F2B0BDDF5
:106120009468403B9B04A40B9B0CA4032343936003
:1061300041188868C0B210BD93689B0B9B03F6E7BB
:10614000000B0020F0B51C002A4B85B01B68060030
:106150000D000192002B4AD0274B8A00D05800280E
:1061600008D0036822005B6801999847040020006A
:1061700005B0F0BD3000FFF751FF844204D929007B
:106180003000FFF74BFF040029003000FFF7BEFF8F
:106190000121EBB2194F03935B010293029A3B6812
:1061A00001989B18FF335A7A0A4315495A72AB017A
:1061B000C918220003F0D5F8002CD8D029003000EF
:1061C000FFF72CFF0028D2D14021039B3A68083307
:1061D0005B01D3181879014319710121D97101218B
:1061E000029BD318FF339A7A0A439A72BFE70124BD
:1061F0006442BCE7F80A00204C060020000B002097
:106200003408002013B56B46DC1D22000123FFF784
:1062100099FF012801D1207816BD01204042FBE7FB
:10622000F0B51E00354B85B01B680F000192002BA6
:1062300035D08023DB019E4231D80025304A8B01C6
:10624000D3180293002E2CD02E4B1B680393FF23F0
:106250003B401C0000930834039B64011C19A37984
:10626000DB0921D0284B2949186801F0D7F8284BC1
:106270001721584301F0D2F8264BE279920713D444
:10628000DA5D002A01D10138F7D20122DA55009BEC
:106290005A011C4B9B189A69920B92039A61012533
:1062A0006D42280005B0F0BD00221A4B3400DA55CB
:1062B0003F2E00D93F2422000199029803F051F8A3
:1062C000009BA1045A010F4B890C9B18029A2D19AF
:1062D0005A619A69361B920B92030A439A61009B9A
:1062E000039A08335B01D3180222DA715979823A92
:1062F0000A435A71019B1B190193A3E7F80A002076
:1063000074060020000B00208400002040420F0093
:10631000701101006906002070B50D001C000D4EC3
:10632000AB01F61811003000220003F01AF8EDB2AC
:1063300009496D014D196E61AB69084A200013408F
:10634000AB61AB69A2049B0B920C9B031343AB6143
:1063500070BDC04674060020000B0020FF3F00F017
:10636000F7B5104B01901B780F001500002B0CD1D6
:106370000D4B16001C78002C09D00C4E0C483488AC
:106380000019641902F0EDFF34802800FEBD002ED4
:10639000FBD03A19330000210198FFF7BDFF241804
:1063A000361AF4E7F4090020F50A0020F60A002066
:1063B000F5090020F8B5002000AF0E001500012AF5
:1063C00026DDD31D6A46DB08DB00D31A9D46080094
:1063D00003F048FD6C46032300210130400020708B
:1063E00063705A1ED2B295420BDD3078002808D077
:1063F0000136A0549D4203D0E1540233DBB2F0E7F2
:106400002A0021000348FFF7ABFF431E9841C0B2AA
:10641000BD46F8BD48060020F0B50027012687B02C
:106420001E4B009102A91E7005000297FFF776FC33
:1064300003AC019009223900200002F0ADFF0923CE
:106440002370022363709E33E3715A332372029BDD
:106450006671093363806B461B7923710F4B1F7084
:10646000009B092B07D11A0021002800FFF778FFB5
:10647000012007B0F0BD0A4B09221E70094E210011
:10648000280002973780FFF76BFF02A92800FFF76B
:1064900045FC034B32881F700349E6E7F4090020EE
:1064A000F50A0020F60A0020F509002070B5CE7824
:1064B00092B005000C00022E08D1C9882B48FFF7C6
:1064C000ABFF431E9841C0B212B070BD00F082FF16
:1064D000210000F04FFF002803D0C317181AC00F87
:1064E000F2E7012E0BD1E2882149112A10DCD2B249
:1064F000002A0DD02800FFF733FF0120E4E7032E28
:10650000E2D1A378002B05D1E2881A49032AEEDDF7
:106510000A78EFE7022B05D1A27917492800FFF787
:1065200049FFD1E7012B02D1A2791449F6E7032BE9
:10653000CAD1134B01A91868FFF7D4F9114B03A96D
:106540001868FFF7CFF9104B05A91868FFF7CAF9CB
:106550000E4B07A91868FFF7C5F900F03BFF09A922
:1065600000F018FFA27901A9D8E7C046480600202C
:10657000FAB90000EAB90000D4B90000EEB9000091
:106580000CA0800040A0800044A0800048A08000B3
:1065900073B5060048780D000B2811D800F034FFC1
:1065A000061D102E104348704C4F696C097801AAE3
:1065B000002907D10223117051703000FFF7ACFEA3
:1065C000012076BD0023137053702E4B1B78012BD6
:1065D00000D1137002230021EFE78A780023012AFB
:1065E00004D101AA13705370274BEFE7254A1370AB
:1065F000264A93699B0B9B039361E1E78C78012CFE
:1066000006D10021204B01AA1C7011702300D4E791
:10661000002C08D101201B4B1C4A187093699B0B5E
:106620009B039361CDE7A9783000FFF729FCC7E70A
:106630003000FFF73BFFC4E70123154ACBE70B7897
:106640000020DB06BDD13000FFF7D6FC2A20022156
:10665000AA780F4BFF301A600C4A13681C5C214368
:106660004A241954FF34195D2938FF38014319555C
:10667000D4E70123074AAEE78A78064B1A60B7E7EA
:1066800000209EE76806002070060020000B002016
:10669000F80A0020FC0A00203C4BF7B51C780700E4
:1066A000002C5ED13A4E33689B8B1B070ED5210020
:1066B0002000FFF73DF9326810231100FF31887A7E
:1066C00003438B72334B1C600823938333689A8B8C
:1066D000520701D504229A83FF331A7AD20620D5B5
:1066E00010221A72597930320A435A7160232A49AA
:1066F00038000A781A4235D1FFF74AFF002834D013
:10670000802233685242FF3399790A439A71336881
:10671000FF331A7A520604D540221A72597A0A4374
:106720005A72336800251C8C01239C43E4B2019308
:10673000E9B2002C15D023002B41019A13420DD051
:106740002B00326808335B01D318DA79D20713D4EF
:10675000DB799B0710D4019BAB409C430135092D8D
:10676000E6D1F7BDFFF7B0FBC8E720220B4BCDE722
:1067700003681B689847EEE7094BAA00D058002829
:10678000F6D13800FFF7E0FAE5E7C046F50A002049
:10679000000B0020F80A002034080020FF500041C0
:1067A0004C06002010B50248FFF776FF10BDC0462A
:1067B00048060020014A024B1A6070470050004111
:1067C000000B0020FA21314B10B51868890000F049
:1067D00025FE2F4B0138984256D82E492E4A486044
:1067E000C020136A00061B021B0A03431362002425
:1067F00007238C600B608021136A09061B021B0AA9
:106800000B431362FC22254B196A0A431A62FC22CD
:10681000196A92010A431A62A022196AD2020A4333
:106820001A6220000021013400F076F80F2CF8D114
:106830001B4B1C005A7852B2002AFBDB194A5A80C3
:10684000194B1A00597EC9090129FBD0E421C9005E
:1068500099803F21D970537EDB09012BFBD0C023E7
:1068600000205B011361907000F024F863785BB244
:10687000002BFBDB0D4B0E4A6380D379DB09012B28
:10688000FBD04123537010BDFEE7C04684000020BA
:10689000FFFFFF0010E000E000ED00E0000400401A
:1068A000000C00401E40000000400042214000005B
:1068B00000480042164A00B51300517EC90901295B
:1068C000FBD00138042816D81969124A0A400F2152
:1068D0001A615A788A4300F097FD0308060B0300FB
:1068E000110001220A435A7000BD11000322F9E78A
:1068F00011000222F6E7F02311691B050B430F215B
:10690000136153788B43190002230B435370EBE759
:1069100000400042FFFFFFF0182330B51D000400C7
:1069200045430820204A55192856013014D0032920
:1069300012D808006343D156D31800F065FD022831
:106940000E1B5868CB010221184A9B181A184032B6
:106950001170012282405A6030BD5868CB01062177
:10696000124A9B181A1840321170012282405A6054
:106970009A61F1E75868CB0106210C4A9B181A1856
:1069800040321170012282405A605A61E4E758682F
:10699000CB010221054A9B181A18403211700122BE
:1069A00082409A60D8E7C0460CBA0000004400411B
:1069B0001823F0B508245843114A13181C57013402
:1069C0001BD0012635005F688356BD400D4ADB01B0
:1069D0009A18906828420BD10C00601E8441D2198D
:1069E0004032107834400336A400B0432043107086
:1069F000044A9B18002901D15D61F0BD9D61FCE74F
:106A00000CBA000000440041F8B5030018205843B8
:106A10002A4A1018007A40B20400013013D0481CF2
:106A200000240C280FD800F0EFFC451C1C1C1C1C7B
:106A30001C1C1C0707070700092906D100211800A4
:106A4000FFF76AFF00242000F8BD0A2901D10839A8
:106A5000F5E700240B29F6D10A391800FFF75CFF8F
:106A6000F1E718204343D018466801253400D25678
:106A70001348D20112187308D31830332C401878F9
:106A8000002C0BD00F24090120400143C9B29219F8
:106A90001970403213781D431570D3E70F27B843A0
:106AA00001439219C9B21970130040331A78154383
:106AB0001D70C8E701246442C5E7C0460CBA000057
:106AC0000044004110B50400006802F01FFC2000E3
:106AD00010BD10B504000068002801D002F016FCBB
:106AE00000232360A360636010BD70B504000D0037
:106AF0000068013103F070F9031E01D0012028C4A1
:106B000070BD036810B50400002B04D043688B42AD
:106B100001D3012010BD2000FFF7E7FF0028F9D0C6
:106B2000A368002BF5D122681370F2E770B50E0050
:106B3000110004001500FFF7E4FF002804D1200035
:106B4000FFF7C7FF200070BDA5603100206803F08B
:106B500081F9F7E7002370B504000D00036043607E
:106B60008360994207D0080003F07CF929000200F5
:106B70002000FFF7DBFF200070BD10B501211E20B3
:106B8000FFF7CAFE01211E20FFF712FF01211F207F
:106B9000FFF7C2FE01211F20FFF70AFF10BD000012
:106BA00010B5024800F0EBFA10BDC046040C0020FE
:106BB00010B5024800F0E3FA10BDC046400E0020B8
:106BC0007FB51949194800F04BF81949194800F0E8
:106BD00047F81949194800F043F81949194800F0D5
:106BE0003FF8194C1949200000F03AF8184E19499D
:106BF000300000F035F801250323310001950093A2
:106C00000D220B33144800F04FFA1D230393013B70
:106C100002931A3B0193009518331B2221000F4861
:106C200000F0FEF97FBDC046000800427C10002045
:106C3000000C004280100020001000428410002050
:106C400000140042881000208C1000200018004220
:106C500090100020001C0042040C0020400E002078
:106C600001607047F0B505AC25780468981E471E92
:106C7000B84126689207000632430243072022608B
:106C80000140AD01626829430020022B00D0580367
:106C9000114301436160F0BD10B5C0240368A40333
:106CA0001868120522400243C020090480020140F6
:106CB000114319605A681043586010BD01220368DF
:106CC00019680A431A601A68D207FCD4DA69D20735
:106CD000F9D470470222036819680A431A60DA6916
:106CE0009207FCD4704703681A7ED20702D41A7E3A
:106CF0009207FCD57047002203685A8370470368E7
:106D0000187E4007C00F70470368187EC00970479F
:106D1000802302685B42117E0B4313767047036841
:106D2000588B8007C00F704702230268518B0B43BA
:106D3000538370470368187EC007C00F704703680D
:106D4000188DC0B2704703681A7ED207FCD589B28D
:106D5000012019857047012203689A757047012246
:106D600003681A75704700000368214A30B59342E2
:106D700011D0204A93422FD01F4A93422FD01F4A4E
:106D800093422FD01E4A93422FD01E4A934222D1C3
:106D90000E23192201E00923142201210325994021
:106DA0001948C024016099082B40AB40FC359D4038
:106DB00089000918A4000859A843C0259D402B004C
:106DC00003430B518023DB011A43104B5A805A783E
:106DD00052B2002AFBDB30BD0A231522DDE70B236C
:106DE0001622DAE70C231722D7E70D231822D4E75F
:106DF00000080042000C0042001000420014004253
:106E000000180042001C004200E100E0000C0040BD
:106E1000F8B5040016000F001D00FFF7A5FF2000C5
:106E2000FFF74CFF1C22BB00134072072468120CB2
:106E3000134323608423A375012F18D11021012E41
:106E400000D008390A4B69431868C00000F0E6FA20
:106E50000722A3890240DB045203DB0C1343A38106
:106E60000304A089DB0C400B40031843A081F8BD4C
:106E7000840000200120704710B50368014A1B6A96
:106E8000984710BD130400000300FC33D9699A69C8
:106E9000914203D0DB69C018007D70470120404259
:106EA000FBE710B504000069FFF708FF220000238C
:106EB000FC329361D36186229200A4186360A360C0
:106EC00010BDF02001403039484248417047F0235E
:106ED0001B011940802306209B0099420AD00133F0
:106EE000FF330130994205D0802302385B0099427C
:106EF00000D0002070470F2001400020012903D05E
:106F00000239481E8141481C704700008923F0B5B2
:106F1000182685B002919B000400C05C3300082154
:106F20004343324D1700EB185956FFF76DFD304BB8
:106F30000821E05C33004343EB185956FFF764FD2A
:106F40002C4BE25C0393022A09D11133E05CFF2849
:106F500005D008214643AE197156FFF755FD8A2624
:106F6000B600A05DFF2819D00121FFF7D5FC18223B
:106F7000A35D21495A43AB56AD18DB0158188B214C
:106F8000890060501D4901225B188C2189006350E3
:106F900069688A408D21890062501A600122029B33
:106FA00011002069FFF734FF39002000FFF78FFF41
:106FB000390005002000FFF79EFF39000600200081
:106FC000FFF77FFF33000090290020690122FFF7BF
:106FD00049FE0B4B2069E25C039BE15CFFF75CFE22
:106FE0002069FFF777FE05B0F0BDC0460CBA00007F
:106FF000250200002702000018440041144400410B
:1070000026020000802210B504005200002102F088
:10701000C3F923000022FC335A6020009A6010BD9F
:10702000F0B585B01D000AAB1B78040000930BABD4
:107030001B78160001930CAB1B780F0002930DAB6D
:107040001B78039300234360FA239B008360124B59
:10705000083303601430FFF7D5FF20001D30FF30E8
:10706000FFF7D0FF89236A469B002761E6540B4B4C
:107070001278E5540A4B2000E2546A46094B127913
:10708000E2546A46127A0133E2546A46127B1033A4
:10709000E25405B0F0BDC0466CBD00002502000002
:1070A0002602000027020000F7B51D0008AB1B7880
:1070B0000400009309AB1B78160001930023436082
:1070C000FA239B008360114B0F00083303601430D8
:1070D000FFF798FF20001D30FF30FFF793FF892353
:1070E0006A469B002761E654094B1278E554094B28
:1070F0002000E2546A46084B1279E2548A22293B66
:10710000FF3B9200A3541032A354FEBD6CBD00009F
:107110002502000026020000270200000300FC33C5
:1071200058689B68C01A01D50130FF30704710B510
:10713000040020001D30FF30FFF7F0FF0028F8D1D9
:107140002069FFF7D0FD10BD10B51430FFF7E6FF42
:1071500010BD0300FC3359689A68914204DB5A68F9
:107160009868801AFF30704798685B68C01A0138C9
:10717000F9E710B51D30FF30FFF7EBFF10BD10B57C
:1071800004000069FFF7CBFD002805D02069FFF758
:10719000D6FD2069FFF7C8FD2069FFF7B0FD002884
:1071A00020D02069FFF7CBFD2200FC329369D16922
:1071B0000133DBB28B4203D091696118087593618A
:1071C0008A239B00E35CFF2B0CD020001430FFF7D8
:1071D000C0FF092806DC8B238D229B009200E35818
:1071E000A2581A602069FFF7A5FD00281AD02000D8
:1071F0001D30FF30FFF792FF002822D086239B002E
:10720000E31899685A68914218D08E219A6849000B
:10721000A218515C9A680132D2B29A60C9B2206950
:10722000FFF791FD2069FFF76FFD002805D0206969
:10723000FFF76EFD2069FFF75EFD10BD0121494299
:10724000ECE72069FFF78BFDECE7000070B5040068
:1072500000690D00FFF76EFD002824D1FF2686236C
:107260009B00E3185A689968013232408A422FD154
:10727000EFF31083DB070DD41E4B5B68DB05DB0DE2
:10728000EDD0103B5BB2002B19DB9B08C0331A4AD0
:107290009B009B582069FFF74DFD0028DFD02000A0
:1072A000FFF76DFFDBE720001D30FF30FFF736FFF3
:1072B0000028D3D129002069FFF745FD17E00F22F0
:1072C0001340083B9B080D4A9B009B181B68E1E795
:1072D0005A68013216409A68964205D08E215A6843
:1072E0004900A21855545E602069FFF734FD012063
:1072F00070BDC04600ED00E000E100E01CED00E0E4
:107300000300FC33D9699A6970B5040091421AD020
:10731000DA698218157DDA690132D2B2DA618A231C
:107320009B00E35CFF2B0CD020001430FFF711FF13
:107330000A2806DD8C238D229B009200E358A25878
:107340001A60280070BD01256D42E8E770B50E0097
:1073500000254468002C0BD0236831005B682000B6
:107360009847002802DB2D18E468F3E701256D42F9
:10737000280070BD70B50D004468002C08D023684B
:1073800029009B6820009847002802D1E468F4E7B0
:10739000200070BD70B50D004468002C07D0236834
:1073A00029002000DB689847E4682D18F5E72C7069
:1073B00070BD70B50D004468002C08D0236829000A
:1073C0001B6820009847002802D1E468F4E72000F9
:1073D00070BD00000121064A10B5136805480B4036
:1073E00005D102240470241944704360116010BD5B
:1073F00094100020981000200B0010B50100180018
:1074000001F044FF10BD000002B471464908490074
:10741000095C49008E4402BC7047C0460022430804
:107420008B4274D303098B425FD3030A8B4244D34C
:10743000030B8B4228D3030C8B420DD3FF2209028E
:1074400012BA030C8B4202D31212090265D0030B4D
:107450008B4219D300E0090AC30B8B4201D3CB0343
:10746000C01A5241830B8B4201D38B03C01A524185
:10747000430B8B4201D34B03C01A5241030B8B4287
:1074800001D30B03C01A5241C30A8B4201D3CB0272
:10749000C01A5241830A8B4201D38B02C01A524157
:1074A000430A8B4201D34B02C01A5241030A8B425A
:1074B00001D30B02C01A5241CDD2C3098B4201D372
:1074C000CB01C01A524183098B4201D38B01C01AF0
:1074D000524143098B4201D34B01C01A5241030967
:1074E0008B4201D30B01C01A5241C3088B4201D316
:1074F000CB00C01A524183088B4201D38B00C01AC3
:10750000524143088B4201D34B00C01A5241411AE9
:1075100000D20146524110467047FFE701B50020F6
:1075200000F0F0F802BDC0460029F7D076E77047BA
:1075300003460B437FD4002243088B4274D30309D4
:107540008B425FD3030A8B4244D3030B8B4228D375
:10755000030C8B420DD3FF22090212BA030C8B429B
:1075600002D31212090265D0030B8B4219D300E03B
:10757000090AC30B8B4201D3CB03C01A5241830BC0
:107580008B4201D38B03C01A5241430B8B4201D370
:107590004B03C01A5241030B8B4201D30B03C01A99
:1075A0005241C30A8B4201D3CB02C01A5241830A13
:1075B0008B4201D38B02C01A5241430A8B4201D342
:1075C0004B02C01A5241030A8B4201D30B02C01A6C
:1075D0005241CDD2C3098B4201D3CB01C01A5241D3
:1075E00083098B4201D38B01C01A524143098B425C
:1075F00001D34B01C01A524103098B4201D30B0145
:10760000C01A5241C3088B4201D3CB00C01A524169
:1076100083088B4201D38B00C01A524143088B422E
:1076200001D34B00C01A5241411A00D201465241C7
:10763000104670475DE0CA0F00D04942031000D3E6
:107640004042534000229C4603098B422DD3030A3B
:107650008B4212D3FC22890112BA030A8B420CD34B
:10766000890192118B4208D3890192118B4204D374
:1076700089013AD0921100E08909C3098B4201D3F4
:10768000CB01C01A524183098B4201D38B01C01A2E
:10769000524143098B4201D34B01C01A52410309A5
:1076A0008B4201D30B01C01A5241C3088B4201D354
:1076B000CB00C01A524183088B4201D38B00C01A01
:1076C0005241D9D243088B4201D34B00C01A5241D8
:1076D000411A00D20146634652415B10104601D365
:1076E0004042002B00D54942704763465B1000D3EF
:1076F000404201B5002000F005F802BD0029F8D095
:1077000016E770477047C0468446101C62468C4698
:10771000191C634600E0C0461FB500F015FF0028A5
:1077200001D40021C8421FBD10B500F06FFE4042D9
:10773000013010BD10B500F007FF002801DB00206C
:1077400010BD012010BDC04610B500F0FDFE0028A0
:1077500001DD002010BD012010BDC04610B500F0B5
:107760008FFE002801DC002010BD012010BDC046A6
:1077700010B500F085FE002801DA002010BD0120C0
:1077800010BDC046F8B54546DE4657464E460C038A
:10779000E0B54E00C90F88460D00610A440F0C4346
:1077A000C70019035800DB0F9B464B0A510F0B43D0
:1077B000760D400D1900D200D84500D1AEE0351A43
:1077C000002D00DCF6E000280FD1134300D1DBE0F0
:1077D0006B1E002B00D037E1BA1A9742BF41641AE2
:1077E0007F42E41B0126170024E0C64B9E424DD089
:1077F00080231B041943382D00DD07E11F2D00DD18
:1078000038E12020431B9A460B005046834099469E
:1078100013004846EB401843030050468240501E78
:107820008241E9401A43BA1A611A9742A4411700EB
:1078300064420C1B230262D56402650A002D00D14C
:10784000DFE0280001F004FD0300083B1F2B00DDF2
:10785000D2E020223C00D21A9D40D4409F402543D4
:107860009E4200DDC4E09E1B731C1F2B00DDF1E077
:10787000202238002900D21AD840914097402C008D
:107880000143781E8741DC4000260F437B0709D067
:107890000F233B40042B05D03B1DBB42BF417F4221
:1078A000E4191F0023022CD5964B01369E4200D1CD
:1078B0009AE04546944BFF081C4060077605640239
:1078C0000743240B760D00212403230B0C0D8F4A54
:1078D00024051C431440330523435B00ED075B087C
:1078E0002B43380019003CBC90469946A246AB4653
:1078F000F8BD6446044300D111E2040067467B07EB
:10790000C6D145466007FF080743E4087D4B9E4209
:1079100030D024037605240B760DD4E7331A9A462B
:10792000002B78DD002831D076488642AED080200A
:10793000000401435346382B00DCE9E00A43511EA2
:107940008A410021D219BA42BF4109197C4217006D
:107950000C192302D3D56B4B01369E4200D13AE17C
:107960000120694B1C407B0807401F43E007074389
:1079700064088BE723003B4300D1CBE18022120354
:1079800014432403240B9EE72E007FE708001043D6
:1079900000D1B4E0581E002800D0DEE0BA18BA4288
:1079A0009B4164185B42E418170001262302A6D508
:1079B0000226D5E7002D6ED1701C4005400D012830
:1079C00000DCF9E0B81A844687428041E51A40425B
:1079D0002D1A280200D489E0D71BBA4292411C1B01
:1079E0005242A51AD84629E74546002400276AE7EF
:1079F000454CF61A2C4049E73D00283885400027C1
:107A00002EE7380001F024FC20301DE70A43511E08
:107A10008A41002107E7002B00D0F3E0701C4305EA
:107A20005B0D012B00DCADE0364B984200D1D1E07C
:107A3000BA18BA42BF4164187F42E419E7075208F6
:107A400017436408060021E72E48854200D193E0E1
:107A50001D00D0E629001F3EF140202B00D18DE013
:107A60004022D31A9D402F437D1EAF4100240F4377
:107A7000002644E72B000800203BD8400300202DBF
:107A800000D17DE04020451BA9400A43511E8A4198
:107A900000211A43C7E6002E50D01A4EB04257D0EC
:107AA00080266B429946360434434B46382B00DD22
:107AB000D6E01F2B00DD35E12026F51A2600AE406A
:107AC000B2463E00DE40AC46350056462E43654683
:107AD000AF407D1EAF41DC403743D71BBA429241D5
