:1020000000800020114D0000F94C0000F94C000048
:1020100000000000000000000000000000000000C0
:10202000000000000000000000000000F94C00006B
:102030000000000000000000F94C0000654D0000A9
:10204000F94C0000F94C0000F94C0000F94C00007C
:10205000F94C0000F94C0000F94C0000FD4C000068
:10206000F94C0000F94C0000F94C0000F94C00005C
:10207000F94C0000DD650000CD650000F94C000062
:10208000F94C0000F94C0000F94C0000F94C00003C
:1020900000000000F94C0000F94C0000F94C000071
:1020A000F94C0000F94C0000F94C0000F94C00001C
:1020B0000000000010B5064C2378002B07D1054B1B
:1020C000002B02D0044800E000BF0123237010BDA4
:1020D000900200200000000080BA0000084B10B5FC
:1020E000002B03D00749084800E000BF07480368F9
:1020F000002B00D110BD064B002BFBD09847F9E711
:10210000000000009402002080BA00008C02002031
:102110000000000070470020704710B5040002F076
:10212000AFFE200010BD0000054B10B508330400C1
:1021300008C000F0E9F900232000E36110BDC046AB
:10214000B8B0000010B5043000F018FA10BD10B59A
:10215000043000F015FA10BD10B5043000F012FA8A
:1021600010BDC3690133C36118007047C369013BE7
:10217000C361180070470000094B10B50833040014
:1021800003604068002809D0FFF7F0FF002805DC55
:102190006068002802D003685B689847200010BD83
:1021A000CCB0000010B50400FFF7E6FF200002F0FD
:1021B00067FE200010BD0000064B10B50833040078
:1021C00003604160002902D00800FFF7CAFF200029
:1021D00010BDC046CCB00000F0B585B004001E00B4
:1021E00054200AAB1F780291039202F045FE0500CD
:1021F0003300039A0299009700F06EFA290020003C
:10220000FFF7DAFF200005B0F0BD436810B5181ED7
:1022100001D000F0C0F910BD436810B5181E01D000
:1022200000F0BBF910BD436810B5181E01D000F0D6
:10223000B9F910BD436810B5181E01D000F018FAA6
:1022400010BD40687047704710B5040002F018FEDA
:10225000200010BD10B5024802F040F910BDC04684
:102260007004002010B5024802F0D0F810BDC0463E
:102270007004002010B5064B81880020994205D0DB
:10228000044802F011FB431E9841C0B210BDC04685
:10229000FFFF00007004002010B5040088798AB0A8
:1022A0008B7ACA7A0390C8790290087A0190497AA9
:1022B00005A80091044907F0C1FA05A9200004F01F
:1022C00060F920000AB010BDDCB0000010B5044B6E
:1022D00081887F20994202D0024802F097F910BD10
:1022E000FFFF00007004002013B504000622002147
:1022F000684606F067FDA288064B00209A4207D088
:10230000A01D0622694606F033FD431E9841C0B267
:1023100016BDC046FFFF000010B584888A880023E0
:10232000944207D106310630062206F021FD4342D1
:102330004341DBB2180010BD10B50400074802F09D
:10234000CDF8236820001B6A9847002804D0A21DFE
:10235000A188034800F0ACFD10BDC0467004002009
:10236000B802002010B584888A880123944207D1DE
:1023700006310630062206F0FBFC431E9841C3B22C
:10238000180010BD074B10B508330360012304008B
:102390005B42838006220021063006F013FD2000F8
:1023A00010BDC046FCB0000010B504000800054B8D
:1023B00011000833A0802360A01D062206F0E7FC70
:1023C000200010BDFCB00000094B10B5083304001C
:1023D00003604068002809D0FFF7C8FE002805DC2C
:1023E0006068002802D003685B689847200010BD31
:1023F00030B1000010B50400FFF7E6FF200002F046
:102400003FFD200010BD0000064B10B5083304004E
:1024100003604160002902D00800FFF7A2FE2000FF
:1024200010BDC04630B1000070B5040030200E0071
:1024300002F022FD0500310000F0C2FB290020005F
:10244000FFF7E2FF200070BD436810B50348002B82
:1024500002D01800FFF776FE10BDC0469BB3000007
:10246000406810B5002801D000F0EBFB10BD4068BB
:102470007047000010B50400024B0360FFF77CFEBC
:10248000200010BD48B1000010B50400FFF7F2FFB6
:10249000200002F0F5FC200010BD000010B5040083
:1024A000024B0360FFF7E6FF200010BD58B10000AB
:1024B00010B50400FFF7F2FF200002F0E1FC20005D
:1024C00010BD000030B50125040085B02B0000953B
:1024D000FFF782FE064B0F212360002369442A0088
:1024E00020000B70FFF79FFE200005B030BDC046F6
:1024F00048B1000010B50400FFF7E4FF014B2000D5
:10250000236010BD58B10000F0B5002504000F0095
:1025100085B003AE02C01022290035707570B57009
:1025200006F050FC2575380007F0B2F9451E237DF2
:102530000193002D18DB0F2B16DC7A5D2D2A02D1BA
:102540000135023DF3E77B19013B1B7872700021D6
:1025500010223000337007F029FA019BE31818713C
:10256000237D01332375ECE7019B022B04DC02235E
:102570002000237505B0F0BD1023F9E7006870470F
:1025800004307047007D7047004870470328000002
:102590000130C07F7047406A7047806A7047808D05
:1025A00070470000436A70B5150004000E0092B237
:1025B000AB4200DC9AB2A2853100A06A06F0E7FBCC
:1025C00023002E331B78002B01D0A38CA385631C22
:1025D000DB7F9A060BD5A28E920708D5218EA38D9C
:1025E000013189B2A26A194800F0DCFC70BDDB063B
:1025F0000BD5A38EDB0708D5218EA38D013189B2BF
:10260000A26A124800F092FCF0E7230032331B78F4
:10261000002B01D10120E9E721000D4801F0FEFC6B
:102620000C4C01002B002000320001F055FC074843
:1026300000F034FC0028EDD1200001F09BFB0028C5
:10264000E8D0200001F098FBE4E7C046B802002083
:1026500004030020DC02002070B5050008000C0017
:1026600007F016F9210002002800FFF79BFF70BD5C
:1026700003000022333318781A70704701867047C0
:10268000008E7047008E013080B27047806B7047BB
:10269000826B0023914207D20022C36B914202D089
:1026A0005B680132FAE71B681800704770B50400D8
:1026B00008200D0002F0E0FB002343606368056022
:1026C000002B05D160602368A0600133236070BDDA
:1026D000A3685860F7E70000F8B504001D0006ABDA
:1026E00016001F78FFF720FD80221A4B9200083356
:1026F0002360631CDE772B00954200DD13006362CC
:102700002300002120002E33A18510221F704430A9
:10271000218619715971A186A163E163216406F0D4
:1027200051FB30231E420ED02C2002F0A5FB2200CC
:10273000094902233432060000F0FEF8200031007F
:102740003830FFF7B3FF280006F0ECFAA062200053
:10275000F8BDC04668B1000060B1000070B500254A
:102760000400406823689D4205D24668013502F0A6
:1027700087FB3000F6E7002323606360A36070BD31
:1027800070B504000025164B08330360A36B9D420F
:1027900014D20022E36B954202D05B680132FAE763
:1027A0001E683000FFF7E2FC002805DC002E03D095
:1027B000336830005B6898470135E7E72500383516
:1027C0002800FFF7CBFFA06A002801D006F0B4FA7A
:1027D0002800FFF7C3FF2000FFF79CFC200070BD1E
:1027E00068B1000010B50400FFF7CAFF200002F036
:1027F00047FB200010BD0000F0B5C66C89B0040096
:1028000017000193002E18D01220104B05AD059330
:102810008B880622AB8002ABC018063106F0B7FAEF
:10282000210003A8FFF7C8FC03A92800B04703A8AC
:10283000FFF7A2FC2800FFF706FDA16A0E9AC9194E
:10284000019806F0A4FA09B0F0BDC04604B100003A
:10285000F0B50D00110002000400012033321070A9
:1028600087B01A002000FFF79DFE276D002F17D0BC
:1028700012200C4B06220393AB8803AEA91D6844BB
:10288000B38006F084FA210001A8FFF795FC01A9A6
:102890003000B84701A8FFF76FFC3000FFF7D3FC0A
:1028A00007B0F0BD04B10000032370B51A40838E59
:1028B00086B00400934220D0828653425A4110329F
:1028C000920082185668002E17D012200C4B062258
:1028D00003938B8803AD06316844AB8006F057FA4A
:1028E000210001A8FFF768FC01A92800B04701A852
:1028F000FFF742FC2800FFF7A6FC06B070BDC046FB
:1029000004B10000A42080017047000010B504004D
:10291000034B08330360FFF7FDFB200010BDC046EA
:102920007CB1000010B50400FFF7F0FF200002F0BA
:10293000A7FA200010BD000070B5040016001D00AD
:10294000FFF7F2FB8022064B2662083323609200D9
:10295000954200DD1500002365622000238570BDCF
:102960007CB10000406A7047006A7047018570477B
:1029700001207047401A41424841C0B27047401A96
:10298000411E8841C0B2704710B50400034B0833A4
:102990000360FFF758FC200010BDC04690B1000056
:1029A00010B50400FFF7F0FF200002F069FA2000E4
:1029B00010BD000010B5034801F090FD024800F082
:1029C0006DFA10BD70040020B802002010B5024856
:1029D00000F07EFA10BDC046B802002030B50500F8
:1029E0008DB005AC06220021200006F0EBF9210095
:1029F0000B4801F0F7FD2178237962790391617822
:102A000007A80291A1780191E1780091054906F0AB
:102A100015FF07A9280003F0B4FD28000DB030BD54
:102A200070040020DCB0000010B50400FFF7AAFC21
:102A3000024B20000833236010BDC04690B1000057
:102A400010B5054801F0D2FA044801F005FC012157
:102A50001F2003F0B3FC10BD04030020700400200D
:102A600030B5012187B005001C2003F05BFC01217B
:102A70001F2003F057FC00211C2003F09FFC0121C4
:102A80001F2003F09BFC642002F0B0F900211F20FE
:102A900003F094FC1D4802F0A9F91D4C200001F040
:102AA000CFFB002805D12800FFF7CAFF002007B0A0
:102AB00030BD642002F09AF9200001F063FD002887
:102AC000F1D105AB019312236B4400930D210E232A
:102AD00004AA6B446944200001F05EFD0028E2D1A5
:102AE00001220C4B5242200001F0ACFD0028DAD14B
:102AF0000F2216216A446944200001F0AFFD00282E
:102B0000D1D1054801F030FB0120D0E7EE020000F2
:102B100070040020FFFFFF3F0403002010B50800F1
:102B2000FFF792FC0100024801F020F910BDC046F9
:102B3000DC02002010B5024801F01AF910BDC046B1
:102B4000DC02002010B5024801F028FB10BDC04691
:102B50000403002010B5024801F00EF910BDC04674
:102B6000DC02002010B5054C2000FFF75DFF044A91
:102B70000449200004F056F910BDC046AC02002004
:102B800000000020892900001FB50A4901A800F0B3
:102B9000BBF901A8FFF7A8FB7F24002803D001A8F8
:102BA000FFF794FB040001A8FFF74DFB200004B0E1
:102BB00010BDC046B8020020A02080017047000070
:102BC00010B50400FFF7B0FA054B2000083323606E
:102BD0000023238463846362A362E36210BDC04662
:102BE000C4B10000018442847047008C7047408C5F
:102BF0007047406A7047426A0023914207D2002220
:102C0000836A914202D05B680132FAE71B681800C0
:102C1000704770B5040008000D00FFF7A2FA082005
:102C200002F02AF900234360A36A0560002B05D156
:102C3000A062636AE0620133636270BDE36A586058
:102C4000F7E710B504000800FFF7FBFA011E02D0F9
:102C50002000FFF7DEFF10BD70B5002504004068BE
:102C600023689D4205D24668013502F009F930001B
:102C7000F6E7002323606360A36070BD70B50400B5
:102C80000025144B08330360636A9D4214D200226E
:102C9000A36A954202D05B680132FAE71E683000F1
:102CA000FFF764FA002805DC002E03D033683000FB
:102CB0005B6898470135E7E7250024352800FFF7D2
:102CC000CBFF2800FFF7C8FF2000FFF723FA200002
:102CD00070BDC046C4B1000010B50400FFF7CEFFC0
:102CE000200002F0CDF8200010BD0000054B10B50B
:102CF0000833040003604069002801D006F01CF886
:102D0000200010BDD8B1000010B50400FFF7EEFFA1
:102D1000200002F0B5F8200010BD0000F0B5052538
:102D200087B004AC02900F00160000212A0020009A
:102D3000039306F047F8012323706B461B7B6770F3
:102D4000237166802B00009404220299024801F04E
:102D5000BFFA07B0F0BDC046700400200D4B012241
:102D6000083370B5002503601723040052428380A6
:102D7000C3814582456105832900C280073208303E
:102D800006F020F82000290008221C3006F01AF86E
:102D9000200070BDD8B10000818070477FB504006D
:102DA0000D00012A16D1060017230836E1800532EE
:102DB000C3810899300005F0EAFFE469002C09D0CE
:102DC0003200290001A8FFF7EFFA01A8A04701A8E7
:102DD000FFF739FA7FBD0000F0B5C38889B0040061
:102DE0008B4253D102001900083202A8019200253B
:102DF000FFF7DAFA264E300001F0E4F8854222D2DD
:102E00002900300001F005F9036807009B68984726
:102E1000204B984214D1062212201F4B05AE059379
:102E200002AB9B88B38002AB9918C01805F0AFFFC6
:102E3000380000223100FFF737FD3000FFF703FABA
:102E40000135ADB2D6E7266A002E11D00622122037
:102E5000114B05AD059302AB9B88AB8002AB991873
:102E6000C01805F094FF2800B0472800FFF7EBF9E1
:102E700001235B42E38006220021019805F0A2FFB6
:102E8000002302A863822383FFF7DDF909B0F0BDB8
:102E9000040300200328000004B10000034BC08895
:102EA000C018431E9841C0B27047C0460100FFFFE2
:102EB00010B50C001100C2880023A24206D10830D0
:102EC000062205F055FF43424341DBB2180010BD16
:102ED00010B50B4BC1880400994201D1002010BDF0
:102EE000084801F0E1FC011EF8D1012320005B42FB
:102EF000E3800830062205F065FF0120EFE7C046B9
:102F0000FFFF00007004002010B50A00064BC988BE
:102F10000400994204D00832FFF746FA200010BDA1
:102F2000FFF730FAFAE7C046FFFF0000F0B587B0C0
:102F300002AF7A603B60F981C688184A0023964246
:102F400028D06B466A46BB60C4890920E31DDB08B4
:102F5000DB00D31A9D461B2302AD2B700D3B0222D2
:102F60006844F91805F013FF033C3A88A4B2944270
:102F700000DD140022007968E81C033405F007FF27
:102F8000E3B2009504223100054801F0A1F9BB68C5
:102F90009D4601231800BD4605B0F0BDFFFF0000AF
:102FA00070040020F0B589B002AFBA607B60F9828E
:102FB000C38805003B611A001E4B00269A4235D09B
:102FC0006B466A46FB60C4890920E31DDB08DB0011
:102FD000D31A9D461D2302AE3370073B022268447C
:102FE000F91805F0D4FE033CBA88A4B2944200DD7F
:102FF00014002200B968F01C05F0C9FE0023033458
:103000002B74E3B20C4C009604223969200001F0C5
:103010005FF92E7CF6B2002E06D1200001F05EFA98
:10302000EB88044A9342F4D1FB689D463000BD46CC
:1030300007B0F0BDFFFF000070040020F0B50F00E6
:1030400085B0022A07D00423002202213800FFF7AE
:1030500065FE05B0F0BD1C8883889C4200DD1C0025
:10306000032503AEC4812A000021300005F0AAFE2A
:103070000D236B441C70240A5C7035702B00009685
:1030800004223900014801F023F9E2E7700400202E
:10309000F0B58DB002AFBB616B467860B9603B6044
:1030A000042A0DD0BA69BB6952781B7812021A4300
:1030B0000423B8681900FFF731FEBD460BB0F0BD20
:1030C0006A467B680226DB890733DB08DB00D31AFC
:1030D0009D4602ABFB610523FA6913700023537010
:1030E000BB691A785B781B021343013B9BB27B617F
:1030F000494C200000F066FF7B69834207D2BB6920
:103100009A78DB781B0213437A69934221DC022E02
:1031100016D1BA69BB6952781B7812021A4304218E
:103120000A23B868FFF7FAFD3B689D46C5E702230E
:103130003B61013BFB602CE00023FB60013328E096
:10314000FA69F3B20092B9680422344801F0C0F879
:10315000EAE77969200000F05CFF7B690500013334
:103160009BB27B61BB8ABB8403689B6898472C4BEE
:10317000984205D12800FFF785FA7B698342D6D0B3
:103180002800FEF7E9FF38610228D5D00023FB6054
:103190000233FA695278002A01D1FA695370FA6948
:1031A00052789342B3D1FB69022298192423F9186B
:1031B00005F0EDFDFB68B41CA4B2002B07D12B6811
:1031C00028009B689847A4239B01984215D1FB696E
:1031D00028001E19FEF7BBFF3A690100300005F018
:1031E000D6FD3B69E418A6B23B697A680233D289FE
:1031F0009B19934200DC7BE789E72B6828009B68DA
:103200009847FB69F884181926230222F918043616
:1032100005F0BDFDB6B2E7E704030020700400200E
:1032200003280000F0B58BB01C006B4602AFF960BC
:1032300078603B602178052A0AD86278042312025C
:103240000A43F8680721FFF769FDBD4609B0F0BDE4
:1032500068467B68DB890733DB08DB00C31A9D46C1
:1032600002AB3B61072338690370A020637925799D
:103270001B0280012B4383420BD062782378120219
:103280001A4307210A23F868FFF748FD3B689D466B
:10329000DBE70125063A93B26278BB6012020A436B
:1032A000013A93B27B612D4E300000F08BFE7B69BA
:1032B000834206D2E378A2781B0213437A699342D1
:1032C0000ADC012DD9D03A69EBB20092F9680422E8
:1032D000234800F0FDFFD9E77969300000F099FE3E
:1032E000036806009B689847637922791B021343A1
:1032F00098420ED13000FEF72FFFBB68984208D1EC
:103300003000FEF724FFA11DBA6805F031FD00284A
:1033100009D07A68EB1CD2899342D2DA7A690132F9
:1033200093B27B61BFE73000FFF75FFC3B69B88376
:1033300058191C230222F91805F029FD3000FFF767
:1033400056FC3B69F883A81C80B218181E23022281
:10335000F918043505F01BFDADB2DAE704030020CF
:1033600070040020F0B58FB01E006B4602AFB8604D
:103370007961FB60062A07D1737931791B020B430F
:1033800055495B18012B0DD97278337812021A4314
:10339000102319007869FFF7C1FCFB689D46BD4604
:1033A0000DB0F0BD6946BB68DB890733DB08DB0085
:1033B000CB1A9D4602AB7B621123796A0B70002306
:1033C0004B70737831781B020B43013B9BB2FB615E
:1033D00002237A603B62414C200000F0F3FDFB6960
:1033E000834206D2F378B2781B021343FA69934200
:1033F00014DC3B6A022B06D17278337812021A432E
:1034000010210A23C6E720237A6AFB181B78009252
:1034100079690422324800F05BFFBEE72000F969B9
:1034200000F0F7FD757933792D021D430368040020
:103430009B689847854249D12000FEF78DFE7B6846
:103440003861BB61022801D01423BB617B6A5B78C1
:10345000002B02D17B6A3A7E5A707B6ABA695B782C
:103460009A42C6D12000FFF7C0FB7B6A3A6AB88552
:1034700098182C230222F91805F089FC2000FFF788
:10348000B6FB3B6AF885981C7B6A80B218182E231D
:103490000222F91805F07BFC3B6A20001D1D7B6AA7
:1034A000ADB25B193B62FEF752FE3A690100386A21
:1034B00005F06DFC3B69ED18ABB23B623A6ABB6943
:1034C0009446BA686344D289934292DCFB69013323
:1034D0009BB2FB617FE7C04600D8FFFF04030020DA
:1034E00070040020F0B58DB00E00694602AF1400E4
:1034F000B8603A6C79600A2C05D1022B10D00423F5
:103500000022210004E0042B0AD0042300220C2115
:103510003000FFF703FC7B689D46BD460BB0F0BD55
:1035200013883B6100237B610A2C01D053887B61A7
:103530005F4D280000F046FD3B69591E8BB2834267
:1035400002D90A233A69DCE76A46BB68DB8907339C
:10355000DB08DB00D31A9D4602ABFB600B230A2C71
:1035600000D00233FA682800137000F052FD03689F
:1035700005009B689847A0239B01984215D17B6961
:10358000002B03D004233A690B21C1E72800FEF782
:10359000E3FD04002800FEF7DAFD22000100FB68CD
:1035A0000133180005F0F3FB62E0424B984261D111
:1035B0002800FFF765F83B6983422DD17B69002B1A
:1035C00001D00B23BEE72800FEF7E2FFFB6858702E
:1035D0002800FFF757F8FB68B883981C1C230222C9
:1035E000F91805F0D4FB2800FEF7B6FD040028000A
:1035F000FEF7ADFDFB68010004332200180005F062
:10360000C6FB0434A3B2FA68DBB200923100042294
:10361000294800F05DFE7EE72800FEF7B9FF02238F
:1036200018428FD02800FEF7BAFF7B6980B298421B
:1036300001DC072386E7BB68DC897B69013CC01A93
:10364000844200DD04001C23BA6831000832F818F7
:10365000FEF7AAFE1C21FB68A2B2009201332800EB
:103660007A697918FFF7C8F81C23F818FEF7EBFD04
:103670000134C7E7A422012392019042C3D128005C
:10368000FFF770F97B6980B29842D2DDBB68DC89B4
:103690007B69013CC01A844200DD04002800FFF76A
:1036A00063F9FB6879690133A2B2411879E7C04632
:1036B000040300200328000070040020F0B58DB042
:1036C00002AFBB616B467861B9603B60062A0DD0E2
:1036D000BA69BB6952781B7812021A430821042385
:1036E000B868FFF71BFBBD460BB0F0BD6A467B69AF
:1036F0000224DB890733DB08DB00D31A9D4602ABCB
:10370000FB610923FA69137000235370BA69BB691E
:1037100055781B782D021D43013DADB2824E30001D
:1037200000F050FC854207D2BB699A78DB781B0217
:103730001343AB4200DD8CE0022C00D080E0BA697C
:10374000BB6952781B7812021A4308210A23B86811
:10375000FFF7E4FA3B689D46C5E7336830009B6895
:103760009847724B984200D0DBE0FB69022218199F
:103770002423F91805F00BFB7B693000DD89FFF786
:10378000F1F80234A4B22D1BADB280B2A84214DD10
:103790007B69DD892D1BADB2FB6930001B197B6194
:1037A000FFF7E2F801002A00786905F0F0FAFB69FA
:1037B00064190235A4B25D70BEE73000FFF7D2F89D
:1037C00085B2E9E7936830009847594B984200D09A
:1037D000A7E03000FEF7C0FC3861022800D0A0E06E
:1037E0003000FEF7B4FCBB69010004333A691800ED
:1037F00005F0BEFA002800D093E0FB693A69181979
:103800002423F91805F0C3FA7B693000DD89FEF73F
:10381000C6FE0234A4B22D1BADB280B2A84204DCB5
:103820003000FEF7BCFE85B203E07B69DD892D1B0D
:10383000ADB2FB6930001B197B61FEF7AEFEB1E74C
:10384000FA69E3B20092B96804223A4800F040FDF8
:1038500080E72900300000F0DCFB6B1C9BB2FB60B2
:10386000BB890600BB8403689B689847BB691A79CB
:103870005B791B02134332689842A3D193683000EE
:1038800098472B4B984200D067E73000FEF7FAFECE
:10389000FB68834245D03000FEF75EFC072378606A
:1038A0003B61022801D015233B61FB695B78002B4B
:1038B00002D1FB693A7C5A70FB693A695B789A429B
:1038C00000D039E7FB69022218192423F91805F002
:1038D0005EFA3000FEF75CFEFA69A31C9BB2D0547E
:1038E0002623E01C80B2F918023510180222FD844C
:1038F000053405F04CFAFB69A4B230001D19FEF73F
:1039000026FC7A680100280005F041FA7B687A6994
:10391000E4183B69A4B2D289E318934200DD0BE7B7
:10392000FD680135ADB2F9E604030020022900006C
:103930000328000070040020F0B58BB002AFB8601F
:103940000D0014007B60012B08D8122A15D1042326
:10395000002221002800FFF7E1F90EE0BB6B4B4885
:103960001B88FB6000F02EFBFB68591E8BB2834264
:1039700006D90A23122C00D185E0BD4609B0F0BD5E
:10398000424800F046FB036806009B689847404B9E
:10399000984241D13000FEF775FEFB68834201D1A9
:1039A000122C33D13000FEF7F3FD030767D5BB6857
:1039B000DB88AB4214D11423BA6829000832F81806
:1039C000FEF7F2FC14217B68BA6B023BDBB20232D9
:1039D00079183000FEF73CFF1423F818FEF733FC8B
:1039E000122CCAD16C46BB681322DB89290007332D
:1039F000DB08DB00E31A9D4602AB1A7025480093F2
:103A00000F3A012300F064FCA546B6E73000FEF74C
:103A1000BFFD4307CBD4B0E7336830009B689847BD
:103A2000A4239B0198422AD13000FEF795FB02287F
:103A300025D13000FEF78BFB174B02889A421ED12E
:103A4000FB681248991E00F0E4FA036806009B68C0
:103A500098470F4B984212D1BB68DB88AB42BFD16D
:103A60001423BA682900F8180832FEF79DFCBB6BD6
:103A700030005A881423F918FEF716FFACE7122C11
:103A800000D07AE70323FA6863E7C0460403002006
:103A9000032800007004002002290000F0B58BB05C
:103AA00002AF7B616B460500F9613A61BB60032A96
:103AB00006D8042300221621F869FFF72FF975E0D4
:103AC0007A697B6954781B78D07824021C439378F8
:103AD0003C4E00021843F860300000F073FA611E9B
:103AE0008BB2834202D90A232200E4E7300000F0BF
:103AF00090FA0368B8619B689847334B984201D0AD
:103B00000B23F1E7B869FEF7BDFD8442F8D1B8692F
:103B1000FEF73EFD030701D40323E5E76E8A002E7E
:103B200049D1B869FEF737FD01007860686905F092
:103B300069FE2E8368616C827A68310005F042F973
:103B40002B8BFA6893423BD13B69B8691E1FF6B2D2
:103B500093197B60FEF71FFD7B6880B298422FDBD4
:103B60006A69FB689446634418007B693200191D3A
:103B700005F00DF96A462B8B09209E19EB897969AE
:103B80000733DB08DB00D31A9D46172302AC2370F2
:103B90003A692E83684405F0FAF83B6900940133D2
:103BA000DBB20422F969094800F092FBBB689D462C
:103BB000BD4609B0F0BD0E23B44200D094E7BFE784
:103BC000072391E70403002003280000700400206D
:103BD000F0B589B00D00694602AF04007960012A92
:103BE00008D00423002218212800FFF797F8BD46CB
:103BF00007B0F0BD418A00291CD01B78134219D0B0
:103C00000139184800F005FAE3880600AB4211D1EB
:103C10000C23220029000832F818FEF7C5FB0C21FE
:103C2000238B300062697918FEF712FE0C23F81816
:103C3000FEF709FB00236A4663822383E389290098
:103C40000733DB08DB00D31A9D46192202AB1A703A
:103C500005480093153A012300F03AFB7B689D4626
:103C6000C5E7C046040300207004002013B50C0013
:103C70001978013AD2B201330C2911D017D806298C
:103C800035D009D802292AD004292CD006230022B5
:103C90002000FFF743F825E008292CD00A29F5D1A8
:103CA000009313000A002100FFF71CFC1AE01629FC
:103CB00029D00AD8102922D01229E7D10093130065
:103CC0000A002100FFF738FE0CE01E291FD0522900
:103CD000F4D01829DAD12100FFF77AFF02E02100A1
:103CE000FFF7ACF913BD2100FFF7D2F9FAE7210085
:103CF000FFF798FAF6E72100FFF7E0FCF2E7210072
:103D0000FFF730FBEEE72100FFF7C8FEEAE70123EB
:103D10000374E7E710B5054C2000FFF71FF8044ACD
:103D20000449200003F07EF810BDC046B802002010
:103D300000000020ED2C0000704710B5040001F0D9
:103D40009FF8200010BD0000074BA022083303603D
:103D5000002302839F3A03718360C3600361436160
:103D60008276036243627047E8B100008160704769
:103D70004161704700797047F0B59BB0040008AD11
:103D800006220021280005F01DF80022A17E130064
:103D9000914203D1636959424B4102330720218B81
:103DA0002271049203900192009202950A00494800
:103DB00000F078FC002802D000201BB0F0BD0223E8
:103DC0000AAE337006270123A1687370B77000290B
:103DD0006FD012A8FEF798FB12A8FEF7D3FB431C86
:103DE0000500F370022800DC043F12A83771FEF7CB
:103DF000C7FB2A000100252002ABC01804F0C7FF52
:103E00000535EDB2236A0693002B1FD0676A002F99
:103E10001CDDFB1CAB4219DA16222100FBB2079312
:103E200003337355A81C6B1CDBB2C0B20435F254CB
:103E30001C31143AEDB2301804F0A9FF70193A00A1
:103E4000069904F0A4FF079B5D19EDB2214F0AAA61
:103E50002900380000F04AFC0028ADD1656912AE97
:103E6000291E15D0280005F013FD02001D282DDDA8
:103E700008231D2273704220D3B20693013333709E
:103E800002AB2900C01804F082FF069B9D1CE9B21A
:103E90003200380000F046FC002800D08CE70121F9
:103EA000380000F05BFC002800D085E7207101306D
:103EB00083E7E16803250029A4D02269002AA1D064
:103EC000D5B26B1CF370FF23337194E70923737031
:103ED000D1E7C046700400208183026243627047CC
:103EE00010B5054C2000FFF72FFF044A04492000BD
:103EF00002F098FF10BDC046DC0200200000002048
:103F0000393D0000F0B5040000270600224B1034B4
:103F1000083387B0036047608760C7601F4920008F
:103F2000FEF74EFE33004033039300971423022222
:103F30001B490398FEF7D0FB3300943304933500FC
:103F40000223E8351A00009716490498FEF7C4FBCF
:103F500015492800FEF734FE33001933FF3305936B
:103F600020220423114900970598FEF7B5FB200095
:103F7000FEF7F7F82800FEF7F4F803992000FEF7A3
:103F800048FE04992000FEF744FE28000599FEF73C
:103F900040FE300007B0F0BD1CB2000000B20000CF
:103FA00005B200000AB200000FB2000014B2000017
:103FB00007B56B46D9800633943002221900FEF70C
:103FC000F1FA07BD4068704770B5002504004068ED
:103FD00023689D4205D24668013500F051FF30004C
:103FE000F6E7002323606360A36070BD10B5043062
:103FF000FFF7EAFF10BD026800238A4207D90022BA
:1040000043688A4202D05B680132FAE71B681800F5
:10401000704710B50430FFF7EEFF10BDF7B500256F
:1040200007002C0001917B689D420ED22900381DAB
:10403000FFF7E1FF036806009B689847A0239B01F8
:1040400098420DD0019BB3420BD1201E07D0FEF742
:1040500083F8022807D12000FEF779F80088FEBD1A
:1040600034000135DFE72000FEF771F84089F6E7FC
:1040700070B5060000247368301D9C420FD22100E9
:10408000FFF7B9FF0500FEF771F8002805DC002DE9
:1040900003D02B6828005B6898470134EBE7FFF7F3
:1040A00093FF70BD70B5040008200D0000F0E4FE21
:1040B0000023436063680560002B05D160602368BE
:1040C000A0600133236070BDA3685860F7E7F0B5C6
:1040D00006000D00002785B00800FEF742F8331DEA
:1040E000180029000193FFF7DDFFB3880393280030
:1040F000FEF77FFD87422ED239002800FEF77BFDB8
:104100000400FEF72EF821000198FFF7CBFFB188DD
:104110002000FEF7B3FA21000198FFF7C3FF002348
:1041200020000093FEF7B2FA009B834211D21900DF
:104130002000FEF7ADFA0290FEF713F802990198FD
:10414000FFF7B0FFB1880298FEF710FC009B013327
:10415000E6E70137CBE77268039992B22800FEF7D1
:1041600041FD05B0F0BD000010B504000A49403023
:10417000FEF772FA00212000FFF71AFF2000FFF778
:1041800077FF210020001031FFF7A1FF2100200060
:10419000E831FFF79CFF10BDF8B1000010B5040036
:1041A0000800FEF764F9011E02D02000FFF78FFF20
:1041B00010BD000010B5054C2000FFF7A3FE044A17
:1041C0000449200002F02EFE10BDC046040300206A
:1041D00000000020D941000010B504000F4B083347
:1041E0000360FFF745FF20001930FF30FEF7C8FAE3
:1041F0002000E830FEF742FD20009430FEF7C0FAC0
:1042000020004030FEF7BCFA20001030FEF736FDEB
:10421000201DFFF7D9FE200010BDC0461CB20000D3
:1042200010B50400FFF7D8FF200000F029FE2000A1
:1042300010BD704710B5040000F022FE200010BD34
:10424000002310B58360034B186803681B68984708
:1042500010BDC04688B20000034B10B51868036853
:104260005B68984710BDC04688B20000FF30002A46
:1042700005D0837F934202DD9B1A8377704700232A
:10428000FBE70000F7B50500406817000193002820
:104290001BD000F01BFE0024BC420FDA019B1E5D08
:1042A0000F2E03DC0949686800F010FE102231006F
:1042B0006868013400F057FEE4B2EDE7686800F08A
:1042C00009FE68680368DB689847F7BD03B2000021
:1042D000F0B504001D0085B000AFB9607A6023001E
:1042E000FF339A7F5B7F9A4203DB200000F0F6F8F1
:1042F000F5E72B006A461033DB08DB00D31A9D4636
:10430000FB606A46022313703B7A01321370BB686C
:1043100009201B0A53706A462B1DDBB2D3700023A1
:1043200013716B46AAB25A7100229A716B46DA1D5C
:10433000BB882E001370002368445370B96A2A00AA
:1043400004F025FD63680936002B05D0F2B26B46F8
:1043500009492000FFF796FFFF34A37F32000133A5
:10436000A377064BF968186803689B699847002093
:10437000BD4605B0F0BDC0462CB2000088B20000BA
:10438000F0B5D77993793F0287B0050014001F4339
:10439000042F0DD10300617820780902014309053B
:1043A00015331279090D1748FFF760FC07B0F0BD0F
:1043B000052F0CD10300617820780902014309051B
:1043C00015331279090D104800F082FBEEE703AEB9
:1043D0000A220021300004F0F5FC0123337005337C
:1043E00073806178043BB38023780902194309057F
:1043F000F780090D00960A2305222800FFF768FFC1
:10440000D4E7C046B80200209C05002070B5040027
:104410002F4D002903D0286803689B6898472E68B1
:1044200033683000DB689847002850D0336830008C
:104430005B699847A368C1B25A1CE318A26019735C
:10444000237B022B1DD1052AE9DD237CE17B1B02A6
:104450005B1804339A42E2DD6368002B06D0230028
:10446000D2B20C331B492000FFF70CFFA3682200D7
:10447000591E0023C9B2A3600D322000FFF780FF50
:10448000CDE7042B1AD1032AC9DDA37B02339A425C
:10449000C5DD6368002B06D02300D2B20C330E4971
:1044A0002000FFF7EFFEA3682200591E0023C9B2C7
:1044B000A3600D32200000F05DF9B0E700236068D2
:1044C000A3609842ABD0102200F051FDA7E770BD69
:1044D00088B2000052B2000065B2000010B50021A1
:1044E000FFF794FF10BD0000F7B5040010000D00A9
:1044F00069460B30C008C000091A00AF8D467960CC
:1045000068460121017069464570280A887069462D
:1045100001A8CA701900161D04F039FC6368002B4D
:1045200005D0F2B26B4615492000FFF7ABFE144BE5
:10453000320018687968036826009B699847230051
:10454000FE337B6001237A685B42FC361382736121
:1045500000F016FC38607B681B8AAB420BD000F081
:104560000FFCFA223B6892009B18984203D220006D
:10457000FFF7B4FFEFE7BD467069FEBD3FB2000034
:1045800088B20000002310B51A000249FFF7ACFF03
:1045900010BDC046030C0000F8B51C0000230E003F
:1045A00015000F491A000700FFF79EFF002816D1DB
:1045B000FC37FB691A7832709A78597812020A43EC
:1045C0002A80DA7822705A79197912020A430699F8
:1045D0000A809A79DB791B021343079A1380F8BD8E
:1045E00001100000002370B51A000E0006490400F7
:1045F000FFF77AFF051E05D1FC34E1690622300081
:1046000004F0C5FB280070BD0910000037B56B46EB
:104610009D1DD98002220A492B000400FFF764FF88
:104620007F2100280AD1FC34E26928885378147865
:104630001B022343984201D10221515608003EBD7E
:104640000514000007B50449009201936B46082247
:10465000FFF74AFF0EBDC046010C0000F8B500236D
:104660000E0017000D491A000500FFF73DFF041E5C
:1046700011D12B00FC33DA69FF35537811781B0216
:104680000B433380937806483B706B773188093948
:1046900089B2FEF781FB2000F8BDC0460220000071
:1046A000B8020020F0B585B09C466B465A80624641
:1046B00004000AA807780BA800780DAD2E781980A1
:1046C0001A7198710C990EAD0622D81D2D785F7164
:1046D00004F05DFB6B460F22034920005E739D735F
:1046E000FFF702FF05B0F0BD06200000F0B5202462
:1046F00089B00D000600170000212200684604F072
:1047000061FB6B462A003900581C1D7004F03FFB0A
:104710006B46220002493000FFF7E6FE09B0F0BD0B
:1047200008200000F0B5202489B00D000600170015
:1047300000212200684604F045FB6B462A00390040
:10474000581C1D7004F023FB6B4622000249300008
:10475000FFF7CAFE09B0F0BD0920000007B56B469F
:104760000733197001220249FFF7BEFE0EBDC04695
:104770000A200000F0B5137887B00400052B10D193
:10478000941C617852793948FEF726FB61783848E5
:10479000E27800F04DF901213648FFF7DFFF07B05E
:1047A000F0BD0E2B10D11379D0781B0203432000EB
:1047B000FE3003825379023843615378FF34043B5F
:1047C00006326375C261EAE7132B0DD10025967896
:1047D000D71CB542E3DA7A88398820000135FFF723
:1047E00045FD0437EDB2F4E73E2BD8D19378012B89
:1047F000D5D1D378D51C002BD1D108321400A9789B
:10480000687809020143687C2B79EA780490287C57
:10481000EE7B000230430390A87B6E7B00023043A6
:104820000290287BEE7A00023043019000940F48FA
:10483000FEF7B4FAA978687809020143687C2B79FD
:10484000EA780490287CEE7B000230430390A87B3A
:104850006E7B000230430290287BEE7A00023043E8
:1048600001900094024800F0B7F898E7B8020020E1
:104870009C050020700400207FB56E46B3800423A1
:1048800008AC258809AC248873810233318072809A
:10489000B3810E226B460349F5803481FFF724FE75
:1048A00004B070BD13200000F7B5032501AC06006D
:1048B0000F002A000021200004F084FA13232A00AC
:1048C000A3703000230002492780FFF70DFEFEBDD4
:1048D000060400000748084B0200083310B50360C7
:1048E0000023FF3293770549054A4360836002F055
:1048F00099FA10BD7004002078B200003342000025
:10490000000000207047436810B51A688168D269BA
:1049100018009047012010BD10B5406803685B6A1D
:10492000984710BD10B5406803681B69984710BDD3
:1049300010B5406803689B69984710BD10B5406882
:1049400003685B69984710BD70B504004068036850
:104950005B689847050060680368DB689847280033
:1049600070BD10B5040000F08BFA200010BD70B5CA
:1049700004000E0000F004FA050000F001FA401BEC
:10498000B04205D223682000DB6898470028F4D0A5
:1049900070BD0000064B074810B508330360064B96
:1049A000064A4360064B0749836002F03BFA10BD9C
:1049B0008CB2000090050020D80D002000000020DF
:1049C000D8EC0D0005490000704710B5040000F058
:1049D00057FA200010BD0000F0B587B00DAB0F00F6
:1049E0001B88012A20D18688002E1DD0C588002D65
:1049F0001AD0B34201DBAB4216DD03AC0C2200211E
:104A0000200004F0DFF912232370113B6370073399
:104A10006380C0336381A680E580BC3B009405229F
:104A200039000248FFF754FC07B0F0BD70040020C5
:104A300070470000F0B587B007000E0003920C9C91
:104A4000072B41D904AD00210622280004F0BAF951
:104A500013232B70113B6B806B461B7B6B70B988EB
:104A6000002910D0FA88002A0DD0637820781B0224
:104A700003438B4205DBE378A1781B020B4393428F
:104A800001DD0123AB80114F062300950522310083
:104A90003800FFF71DFCAB88002B15D1E378A27816
:104AA0001B0213436278217812020A43E179A0794C
:104AB00009020143019161792079090201430091C2
:104AC00038003100FFF7D8FE07B0F0BD70040020B9
:104AD00037B5032A10D9DC789D7824022C43251D94
:104AE000AA4209D11A78122A06D15A78E4B20433BC
:104AF00000932300FFF79EFF37BD0000064B0748D9
:104B0000083310B503600023054A06498380C3803B
:104B100002F088F910BDC046B8B200009C05002024
:104B200000000020C949000007B56B46D971073362
:104B300001221900FDF777FB0EBD00009621F8B5A4
:104B4000214D8901280000F0A9FB280000F0A8FBF6
:104B50000028FAD00121062001F0E4FB0420002106
:104B600001F0E0FB194C2000FDF77AFF002804D18A
:104B70001749280000F0B6F9FEE720001549FDF7B7
:104B8000D9FF154E20003100FDF7C8FF134F30004C
:104B90003900FDF765FC30001149FDF761FC31007B
:104BA0002000FDF7CFFF38000021FFF7BDFF0021F7
:104BB0000B48FFF7B9FF2000FDF7CCFF280009499B
:104BC00000F090F9F8BDC046C4050020AC020020FA
:104BD00046B300005BB30000B4050020AC05002024
:104BE000A405002065B3000037B50400FDF714FBF1
:104BF00005002000FDF709FB6B46DC1D02002900C3
:104C0000200004F0C4F820783EBD000070B5114DBE
:104C100011492800FDF708FC104C1149220028001A
:104C200002F000F90F4D0A220F492800FDF762FC3F
:104C30000E4E22003100280002F0F4F80C4D122232
:104C400028000C49FDF756FC31002800220002F034
:104C5000E9F870BDB4050020C8B2000000000020D3
:104C6000C9230000AC050020EDB200009D24000027
:104C7000A405002012B30000F8B51948FDF7EAFAC0
:104C8000042001F0C7FB174FC4B23800FFF7ACFF98
:104C9000154D0600844207D021002800FFF744FF8D
:104CA00021003800FFF740FF2800FDF7C3FA002875
:104CB00007D1B44205D1F8BD0C4900F013F9210029
:104CC00009E02800FFF790FF041E0948F4D00949C5
:104CD00000F008F90121062001F070FBEBE7C04667
:104CE000AC020020A4050020AC0500203EB300006B
:104CF000C405002037B3000003BEFEE7034B10B528
:104D00001B68002B00D0984710BDC046BC05002092
:104D100070B50F490F4CA14204D100F07DF900F0AD
:104D20008BF8FEE70C4D00238D42F6D0CA18E81828
:104D3000A24205D39042F0D0084B0949002204E07A
:104D4000006804331060F1E704C38B42FCD3E4E74E
:104D5000000000209002002084BA00009002002091
:104D60004810002010B500F064F8002801D100F0D0
:104D700055F810BD014B18607047C046BC050020B7
:104D8000014B18687047C046C0050020F7B51348AE
:104D9000012284461249134C8E68636805689B0E95
:104DA0001340019288686268019F920E3A406746FC
:104DB0003F6893420ED1BD420CD186420AD35B19A3
:104DC000FA254868AD00861B07486B437043000D09
:104DD000C018FEBD3D0013000600E3E7C00500203B
:104DE00010E000E000ED00E05555000070B5041E35
:104DF00010D0FFF7CBFF050000F01AF8FFF7C6FF51
:104E0000054B401B9842F7D9FA23013C9B00ED1853
:104E1000002CF3D170BDC046E703000010B5034A73
:104E200013680133136000F0BBF810BDC00500200B
:104E3000704700207047000010B501F0C9F903F079
:104E400049FF01F0B1FB0120FFF7D0FF084C200023
:104E500000F0A2FC200000F0FFFCFFF76FFEFFF760
:104E60000BFF044B002BFAD000E000BFF7E7C04671
:104E7000E00500200000000010B503F053FF10BD56
:104E800010B503F059FF10BDF7B506000D000C007A
:104E90008B180193019B671B9C4207D033682178D4
:104EA0001B683000984701340028F3D13800FEBD5C
:104EB00070B505000C00081E07D004F0E9FC2B6853
:104EC00002005B6821002800984770BD10B5FFF70D
:104ED000EFFF10BD10B50249FFF7EAFF10BDC04655
:104EE00099B3000070B50400FFF7E2FF0500200051
:104EF000FFF7F0FF401970BDF0B5160000228DB02D
:104F000002AB053301900D00DA77012E00DC0A2692
:104F10000BAC2800310002F01DF80F00CBB22800C6
:104F20003100009301F090FFFBB237330500013CE4
:104F3000DBB2092F02D8009B3033DBB22370002D87
:104F4000E7D121000198FFF7B3FF0DB0F0BD10B518
:104F5000002A04D10368C9B21B68984710BDD2B2B9
:104F6000FFF7CAFFFAE710B5FFF7F1FF10BD70B504
:104F70000400FFF7ECFF05002000FFF7ABFF40192E
:104F800070BD0000014B18607047C046040000204F
:104F90000122024B52421A607047C04604000020B2
:104FA000164A10B51368591C27D0013B1360002B1B
:104FB00023D172B6124B134A0433934208D8BFF37D
:104FC0004F8F114A114BDA60BFF34F8FC046FDE798
:104FD0000F4A01211000147D0C42FCD02021148BBB
:104FE000FF319B085B0021431183D361094B138080
:104FF0000123027D1A42FCD0E1E710BD040000202D
:1050000000200000030200000400FA0500ED00E0AB
:105010000040004102A5FFFF1E2270B546484749E7
:10502000436893431C3A1343436008238C6923432A
:105030008B61434C434B9C829C8A14439C82DC686A
:105040001442FCD00124404A14701578254203D044
:1050500055786DB2002DF8DB01249460547864B269
:10506000002CFBDB394C5460547864B2002CFBDB21
:105070008224E4015480547864B2002CFBDB0224C7
:105080009C840E34DD682542FCD0314CDC62102457
:10509000DD682542FCD09D8C2E4C2C439C84102432
:1050A000DD682542FCD002249D8C80262C439C8404
:1050B0004024DD683542FCD0DD682542F9D010245B
:1050C000DD682542FCD000249460547864B2002C42
:1050D000FBDB214C5460547864B2002CFBDB1C6A6F
:1050E0001E4D2C4080251C621C6AAC431C620323AD
:1050F00093601B4B536053785BB2002BFBDB0023A8
:10510000FF240B72174A4B728B72CB72164B1A60CC
:10511000164B174A1B6811689A065B01C90E23409B
:10512000520F12020B431343124A13858023426825
:105130001343436070BDC04600400041000400407E
:105140000C06000000080040000C004001050100B2
:10515000B905FF7D040A000000070300FFFCFFFF04
:1051600003060100006CDC02840000202460800043
:1051700020608000004000423F20704713B56B461E
:105180000268D9710733546819000122A04716BD7F
:1051900010B50221006900F047FC10BD10B50321D5
:1051A000006900F057FC10BD10B5130004000A00A0
:1051B0000069032100F03AFD002801D1012363605A
:1051C00010BD000010B5054C23685A1C04D10368BB
:1051D0005B69984703002060180010BD580000204C
:1051E000074B0200186810B5411C03D0012252423F
:1051F0001A6010BD0221106900F00AFDF9E7C046EF
:105200005800002010B5037842220233037002498F
:10521000024800F0ABFD10BD14000020E0050020A6
:1052200010B50178030042780020A12908D1212A75
:1052300005D11A3A1649174800F098FD012010BD13
:105240002129FCD1202A11D1193A1149114800F025
:1052500045FC96220E4BD2001968914203D10124DD
:10526000D87904400ED0FFF793FE0EE0222A03D136
:105270009A78074BDA71ECE7232AE0D15A88064B7B
:105280001A60DCE7FA20FFF77DFE0020D7E7C04672
:105290000C000020E00500200800002070470000FE
:1052A00010B5FFF76DFDF423FF330024984207D9B2
:1052B000044B0A20DC79631E9C41E4B2FFF796FDA3
:1052C000200010BD0C000020FA220021054B9200A6
:1052D0009A60054A596008321A60044A19761A61C0
:1052E0007047C046C40500209CB30000E0050020C4
:1052F00030B50F25CB1D013902002A4014000009EA
:105300003034092A01DD373214001C70013B8B4216
:10531000F2D130BD10B50400806903F00DFDA06A24
:1053200003F00AFD200010BD10B50400FFF7F2FFE6
:105330002000FFF7A5FD200010BD000070B58229F8
:105340001FD1C3B22C4D5A01AA1891692B4C800170
:105350000C40C0218905214391612949083308186F
:10536000802150612A685B01D018047949422143A9
:1053700001717020995C81430800302101439954E8
:1053800070BD0029FCD1C024C1B21B4E4B01F318E3
:105390009A681A4DA4052A4022439A60194A80014E
:1053A00010180A0058603068072608325201115C54
:1053B000B1430E0001213143115499690D402C4332
:1053C0009C6170240E495961115CA1430C001021AD
:1053D0002143115499680C4C82180C4080214903D8
:1053E000214399609968890B890399604023517919
:1053F0000B435371C4E7C046980A0020FFFFFF8F9C
:105400000C060020CC070020FF3F00F070B5040020
:10541000012320CC00212A782000134380222B7006
:10542000520003F0CFFCAB78DB07FCD46C6270BD9C
:105430001F22144B70B51B68590B9C0C9B0111402B
:105440005B0F22401F2900D11A391F2A00D1023ACE
:10545000072B00D1043B1F2500688E01048D0A49EB
:105460002A40214031430185018D14000A00AA43DE
:1054700022430285028D1903044B13400B4303851D
:1054800070BDC046246080003FF8FFFFFF8FFFFF24
:10549000EFF3108303600123436072B67047036823
:1054A000002B02D162B6BFF36F8F704737B5056925
:1054B00004006846002D14D1FFF7EAFF019B621D2E
:1054C000013B02D3D57FEDB2FAE768460193FFF7BF
:1054D000E6FF002D01D100203EBD206AE369C01A1D
:1054E000FAE7FFF7D5FF22000025019B3432013B8C
:1054F00002D31578EDB2FAE768460193FFF7CFFFC4
:10550000002DE8D0206BE36AE9E70000F0B5012543
:105510004668037A31685A018C18FF34A77AB218AA
:105520003D43A572C468094D9068A404284024092D
:105530002043906090680833800B80039060402285
:105540005B01CB1819790A431A71F0BDFF3F00F0D7
:10555000F7B5036904000E0017006846002B3DD123
:10556000FFF796FF019B611D013B5A1C0CD0CD7FBC
:105570005A1EEDB2002D05D168460193FFF78FFF4B
:105580002800FEBD1300F0E7684601930025FFF7F1
:1055900086FFE369AF4202D0226A934257D3226A60
:1055A0009342EDD10023E361013323616846FFF7A5
:1055B0006FFF22000021019B671D013B3532581C03
:1055C000DAD0F97710785E1E002805D0117020001F
:1055D0000193FFF79BFFECE73300F0E7FFF758FF7D
:1055E0002100019B3431013B5A1C06D00D785A1E14
:1055F000EDB2002DC0D01300F6E7684601930025F8
:10560000FFF74DFFE36ABD4202D0226B934226D3DF
:10561000226B9342B4D100236846E3622361FFF713
:1056200037FF270022000021019B3437013B353230
:10563000581CA1D0397010785E1E002805D011705A
:1056400020000193FFF762FFEBE73300F0E75A1CFD
:10565000E261A269D3181B787355013599E75A1C8A
:10566000E262A26AD3181B7873550135CAE7F7B511
:10567000027A436811000400083118684901411892
:10568000C879C00727D501255201CD719B189A68AA
:1056900061699204920C002921D12262226A002AB7
:1056A0003ED0A26A656168465A60FFF7F1FE2700A6
:1056B0002100019B661D013B343735315A1C2BD02C
:1056C000F5773A78581ED2B2002A05D00193684681
:1056D0000D70FFF7E4FEF7BD0A700300EEE72263EA
:1056E000226B002A1CD000226261A26968465A60BF
:1056F000FFF7CEFE26002100019B3436013B671DDB
:1057000035315A1C08D03570FA7F581ED2B2002AA3
:10571000DCD10A700300F4E768460193FFF7BFFE8F
:105720002000FFF7F3FED6E737B56B46DC1D0023FC
:105730000D0020002370FFF765FD2B681818286006
:1057400001F05EFB210001F017FB2B6818182860A0
:1057500020783EBD03290ED180220E4B62311B689A
:10576000FF31585C524202435A5468226339FF3970
:10577000FF32995470470129FCD18022054B243116
:105780001B68FF31585C524202435A542339FF3997
:105790002822EDE7980A0020202370B5254A04004E
:1057A000D1690F200B43D361012223490B781343A6
:1057B0000B70224B19788143197006211D782943FB
:1057C00019701F490D782A430A701A7802401A701E
:1057D000602219780A431A701A4B1B4A5A805A7869
:1057E000D209FCD11948FFF7C5FA194D2800FFF777
:1057F0000DFE2800FFF71CFE7F212B68C1201A78C0
:1058000080000A401A70042219780A430C211A7089
:105810001A898A430F491A810A581202120A0A5039
:1058200080220A6019787E3A0A431A700123237095
:1058300070BDC04600040040584400413C44004153
:1058400059440041000C004006400000B1610000D6
:10585000980A002000E100E00078002810D0012123
:10586000084B1B681A898A431A810822198B0A433C
:105870001A830422198B0A431A830022024B1A60EE
:105880007047C046980A0020900A002010B50F4AC1
:1058900093699B0B9B03936113680222FF331A7277
:1058A0009879823A02439A711A7A9207FCD57F243A
:1058B000074A2140937A0800A3431900802301433B
:1058C0009172917A5B420B43937210BD980A00204B
:1058D0000050004110B50B790C00002B0CD10800D2
:1058E000FFF79EFC002801D0012010BD094A9369F2
:1058F0009B0B9B039361F7E701F082FA210001F013
:105900006EFA0028F0D1034A93699B0B9B039361C5
:10591000EBE7C046980A0020F7B50D00832A19D19D
:10592000CBB2334C5A01A21891693248AD010840FC
:10593000C0218905014391612F4920684D197021CB
:10594000083355615B011A5C8A43110040220A4307
:105950001A54F7BD022A45D1284A8B0098580028CE
:1059600002D003681B6998473820FFF785FA244B5B
:105970008027036000231E4E7F00421D03620361E7
:105980004361C36146608560C760D3772F32C362CD
:105990000363040013703800537003F0C3F90190DF
:1059A000A061380003F0BEF9EBB25A01A062B21850
:1059B0009168104808330840C0218905014391606F
:1059C000316807265B01585CAD00B0430600032038
:1059D00030435854019B20005360FFF797FD074B5D
:1059E0005C51B6E711002800FFF7A8FCB1E7C046FC
:1059F000980A0020FFFFFF8F0C060020E40500201E
:105A0000C8B3000070B505000124064BA200D258AF
:105A1000002A05D021002800FFF77EFF0134F4E7BB
:105A200070BDC0465C000020084B8A00D05810B5FD
:105A3000002803D003689B68984710BDC9B2044B87
:105A40004901591888688004800CF6E7E4050020B5
:105A5000980A002010B50C00FFF7E6FF00280CD0D4
:105A6000064BE4B21B68083464011C198023627978
:105A70005B42134363710223E37110BD980A002057
:105A800070B5134BCCB2134A600189015918131831
:105A900059609968104D08340D40802189022943CE
:105AA000402599609968890B8903996011686301A1
:105AB000CB181E7935431D719D796D06FCD56401A7
:105AC0000919CB79DB07FCD512189068C0B270BDFC
:105AD000CC070020980A0020FF3F00F070B51400AA
:105AE00040220B4B0D001B68FF3359790A435A7152
:105AF0000021FFF7C5FFA04200D92000002305497F
:105B0000A34203D05A5CEA540133F9E770BDC046A2
:105B1000980A0020CC07002010B5C9B20B484901F3
:105B2000421893689B049B0C3F2B0BDD9468403B11
:105B30009B04A40B9B0CA403234393604118886827
:105B4000C0B210BD93689B0B9B03F6E7980A002038
:105B5000F0B51C002A4B85B01B6806000D000192B1
:105B6000002B4AD0274B8A00D058002808D0036861
:105B700022005B68019998470400200005B0F0BD41
:105B80003000FFF751FF844204D929003000FFF7AD
:105B90004BFF040029003000FFF7BEFF0121EBB2EC
:105BA000194F03935B010293029A3B6801989B187B
:105BB000FF335A7A0A4315495A72AB01C9182200B9
:105BC00003F0E5F8002CD8D029003000FFF72CFFB7
:105BD0000028D2D14021039B3A6808335B01D318D7
:105BE0001879014319710121D9710121029BD31840
:105BF000FF339A7A0A439A72BFE701246442BCE7F2
:105C0000900A0020E4050020980A0020CC0700201C
:105C100013B56B46DC1D22000123FFF799FF012815
:105C200001D1207816BD01204042FBE7F0B51E00EF
:105C3000354B85B01B680F000192002B35D08023B7
:105C4000DB019E4231D80025304A8B01D3180293E4
:105C5000002E2CD02E4B1B680393FF233B401C00CF
:105C600000930834039B64011C19A379DB0921D03C
:105C7000284B2949186801F0E7F8284B17215843A9
:105C800001F0E2F8264BE279920713D4DA5D002A9C
:105C900001D10138F7D20122DA55009B5A011C4B81
:105CA0009B189A69920B92039A6101256D42280014
:105CB00005B0F0BD00221A4B3400DA553F2E00D952
:105CC0003F2422000199029803F061F8009BA1048F
:105CD0005A010F4B890C9B18029A2D195A619A6927
:105CE000361B920B92030A439A61009B039A083376
:105CF0005B01D3180222DA715979823A0A435A7148
:105D0000019B1B190193A3E7900A00200C060020B9
:105D1000980A00208400002040420F00701101000A
:105D20000106002070B50D001C000D4EAB01F618E9
:105D300011003000220003F02AF8EDB209496D018C
:105D40004D196E61AB69084A20001340AB61AB6925
:105D5000A2049B0B920C9B031343AB6170BDC04626
:105D60000C060020980A0020FF3F00F0F7B5104B0A
:105D700001901B780F001500002B0CD10D4B160065
:105D80001C78002C09D00C4E0C483488001964197A
:105D900002F0FDFF34802800FEBD002EFBD03A1932
:105DA000330000210198FFF7BDFF2418361AF4E7ED
:105DB0008C0900208D0A00208E0A00208D09002009
:105DC000F8B5002000AF0E001500012A26DDD31D16
:105DD0006A46DB08DB00D31A9D46080003F058FD35
:105DE0006C460323002101304000207063705A1E6E
:105DF000D2B295420BDD3078002808D00136A0548D
:105E00009D4203D0E1540233DBB2F0E72A002100C7
:105E10000348FFF7ABFF431E9841C0B2BD46F8BD33
:105E2000E0050020F0B50027012687B01E4B009149
:105E300002A91E7005000297FFF776FC03AC0190E3
:105E400009223900200002F0BDFF0923237002233C
:105E500063709E33E3715A332372029B6671093378
:105E600063806B461B7923710F4B1F70009B092BBE
:105E700007D11A0021002800FFF778FF012007B0A2
:105E8000F0BD0A4B09221E70094E2100280002971E
:105E90003780FFF76BFF02A92800FFF745FC034B93
:105EA00032881F700349E6E78C0900208D0A002024
:105EB0008E0A00208D09002070B5CE7892B00500C2
:105EC0000C00022E08D1C9882B48FFF7ABFF431EF8
:105ED0009841C0B212B070BD00F092FF210000F0F6
:105EE0005FFF002803D0C317181AC00FF2E7012E76
:105EF0000BD1E2882149112A10DCD2B2002A0DD040
:105F00002800FFF733FF0120E4E7032EE2D1A37856
:105F1000002B05D1E2881A49032AEEDD0A78EFE763
:105F2000022B05D1A27917492800FFF749FFD1E7D5
:105F3000012B02D1A2791449F6E7032BCAD1134BE6
:105F400001A91868FFF7D4F9114B03A91868FFF7E6
:105F5000CFF9104B05A91868FFF7CAF90E4B07A92E
:105F60001868FFF7C5F900F04BFF09A900F028FFFA
:105F7000A27901A9D8E7C046E005002002B40000DC
:105F8000F2B30000DCB30000F6B300000CA0800008
:105F900040A0800044A0800048A0800073B50600A7
:105FA00048780D000B2811D800F044FF061D102E74
:105FB000104348704C4F696C097801AA002907D139
:105FC0000223117051703000FFF7ACFE012076BD46
:105FD0000023137053702E4B1B78012B00D11370CC
:105FE00002230021EFE78A780023012A04D101AAC5
:105FF00013705370274BEFE7254A1370264A9369B5
:106000009B0B9B039361E1E78C78012C06D1002167
:10601000204B01AA1C7011702300D4E7002C08D17A
:1060200001201B4B1C4A187093699B0B9B039361C7
:10603000CDE7A9783000FFF729FCC7E73000FFF76C
:106040003BFFC4E70123154ACBE70B780020DB06B2
:10605000BDD13000FFF7D6FC2A200221AA780F4BD1
:10606000FF301A600C4A13681C5C21434A241954FF
:10607000FF34195D2938FF3801431955D4E701234E
:10608000074AAEE78A78064B1A60B7E700209EE71A
:106090000006002008060020980A0020900A002030
:1060A000940A00203C4BF7B51C780700002C5ED109
:1060B0003A4E33689B8B1B070ED521002000FFF75B
:1060C0003DF9326810231100FF31887A03438B7247
:1060D000334B1C600823938333689A8B520701D596
:1060E00004229A83FF331A7AD20620D510221A721C
:1060F000597930320A435A7160232A4938000A78A4
:106100001A4235D1FFF74AFF002834D08022336885
:106110005242FF3399790A439A713368FF331A7AEE
:10612000520604D540221A72597A0A435A723368C9
:1061300000251C8C01239C43E4B20193E9B2002C9E
:1061400015D023002B41019A13420DD02B00326849
:1061500008335B01D318DA79D20713D4DB799B07B4
:1061600010D4019BAB409C430135092DE6D1F7BD0E
:10617000FFF7B0FBC8E720220B4BCDE703681B6895
:106180009847EEE7094BAA00D0580028F6D138000E
:10619000FFF7E0FAE5E7C0468D0A0020980A0020E4
:1061A000900A0020CC070020FF500041E4050020A9
:1061B00010B50248FFF776FF10BDC046E00500208D
:1061C000014A024B1A60704700500041980A0020B3
:1061D000FA21314B10B51868890000F035FE2F4BBD
:1061E0000138984256D82E492E4A4860C020136A7A
:1061F00000061B021B0A03431362002407238C6062
:106200000B608021136A09061B021B0A0B431362F1
:10621000FC22254B196A0A431A62FC22196A920170
:106220000A431A62A022196AD2020A431A622000A3
:106230000021013400F076F80F2CF8D11B4B1C0024
:106240005A7852B2002AFBDB194A5A80194B1A00BD
:10625000597EC9090129FBD0E421C90099803F2159
:10626000D970537EDB09012BFBD0C02300205B01DA
:106270001361907000F024F863785BB2002BFBDBB5
:106280000D4B0E4A6380D379DB09012BFBD04123F0
:10629000537010BDFEE7C04684000020FFFFFF00E2
:1062A00010E000E000ED00E000040040000C0040C1
:1062B0001E40000000400042214000000048004213
:1062C000164A00B51300517EC9090129FBD00138D7
:1062D000042816D81969124A0A400F211A615A78FF
:1062E0008A4300F0A7FD0308060B030011000122FA
:1062F0000A435A7000BD11000322F9E7110002227F
:10630000F6E7F02311691B050B430F211361537846
:106310008B43190002230B435370EBE7004000420C
:10632000FFFFFFF0182330B51D000400454308208F
:10633000204A55192856013014D0032912D80800D4
:106340006343D156D31800F075FD02280E1B586820
:10635000CB010221184A9B181A18403211700122F1
:1063600082405A6030BD5868CB010621124A9B1802
:106370001A1840321170012282405A609A61F1E786
:106380005868CB0106210C4A9B181A18403211702C
:10639000012282405A605A61E4E75868CB01022129
:1063A000054A9B181A1840321170012282409A60E7
:1063B000D8E7C04614B40000004400411823F0B5EB
:1063C00008245843114A13181C5701341BD00126C6
:1063D00035005F688356BD400D4ADB019A1890680E
:1063E00028420BD10C00601E8441D2194032107833
:1063F00034400336A400B04320431070044A9B1875
:10640000002901D15D61F0BD9D61FCE714B400007D
:1064100000440041182310B50824584307490023BD
:106420000A181457013406D043560549DB015B189E
:106430001B6A5268D3400120184010BD14B40000FC
:1064400000440041F8B50300182058432A4A1018A8
:10645000007A40B20400013013D0481C00240C28FC
:106460000FD800F0E7FC451C1C1C1C1C1C1C1C0746
:1064700007070700092906D100211800FFF752FF7E
:1064800000242000F8BD0A2901D10839F5E70024CD
:106490000B29F6D10A391800FFF744FFF1E718205D
:1064A0004343D018466801253400D2561348D20120
:1064B00012187308D31830332C401878002C0BD0E6
:1064C0000F24090120400143C9B2921919704032CA
:1064D00013781D431570D3E70F27B8430143921972
:1064E000C9B21970130040331A7815431D70C8E7FC
:1064F00001246442C5E7C04614B4000000440041D2
:1065000010B504000068002801D002F015FC00233B
:106510002360A360636010BD70B504000D000068C7
:10652000013103F06FF9031E01D0012028C470BDB2
:10653000036810B50400002B04D043688B4201D3DC
:10654000012010BD2000FFF7E7FF0028F9D0A36865
:10655000002BF5D122681370F2E770B50E00110020
:1065600004001500FFF7E4FF002804D12000FFF726
:10657000C7FF200070BDA5603100206803F080F9DE
:10658000F7E7002370B504000D00036043608360EB
:10659000994207D0080003F07BF92900020020008F
:1065A000FFF7DBFF200070BD10B501211E20FFF7B3
:1065B000B9FE01211E20FFF701FF01211F20FFF777
:1065C000B1FE01211F20FFF7F9FE10BD10B50248F2
:1065D00000F0EBFA10BDC0469C0B002010B502483D
:1065E00000F0E3FA10BDC046D80D00207FB5194970
:1065F000194800F04BF81949194800F047F81949B3
:10660000194800F043F81949194800F03FF8194CAF
:106610001949200000F03AF8184E1949300000F0EE
:1066200035F8012503233100019500930D220B332A
:10663000144800F04FFA1D230393013B02931A3BC9
:106640000193009518331B2221000F4800F0FEF93A
:106650007FBDC0460008004214100020000C00421C
:1066600018100020001000421C10002000140042EE
:1066700020100020241000200018004228100020C4
:10668000001C00429C0B0020D80D002001607047C8
:10669000F0B505AC25780468981E471EB8412668F9
:1066A0009207000632430243072022600140AD01F9
:1066B000626829430020022B00D058031143014394
:1066C0006160F0BD10B5C0240368A403186812050A
:1066D00022400243C0200904800201401143196096
:1066E0005A681043586010BD0122036819680A43B4
:1066F0001A601A68D207FCD4DA69D207F9D4704755
:106700000222036819680A431A60DA699207FCD406
:10671000704703681A7ED20702D41A7E9207FCD50E
:106720007047002203685A8370470368187E400749
:10673000C00F70470368187EC00970478023026845
:106740005B42117E0B43137670470368588B8007BA
:10675000C00F704702230268518B0B43538370476D
:106760000368187EC007C00F70470368188DC0B259
:10677000704703681A7ED207FCD589B201201985BB
:106780007047012203689A757047012203681A75E1
:10679000704700000368214A30B5934211D0204A67
:1067A00093422FD01F4A93422FD01F4A93422FD09B
:1067B0001E4A93422FD01E4A934222D10E23192201
:1067C00001E0092314220121032599401948C0241E
:1067D000016099082B40AB40FC359D4089000918A9
:1067E000A4000859A843C0259D402B0003430B512A
:1067F0008023DB011A43104B5A805A7852B2002A88
:10680000FBDB30BD0A231522DDE70B231622DAE776
:106810000C231722D7E70D231822D4E700080042E3
:10682000000C004200100042001400420018004218
:10683000001C004200E100E0000C0040F8B504003C
:1068400016000F001D00FFF7A5FF2000FFF74CFF0B
:106850001C22BB00134072072468120C13432360F0
:106860008423A375012F18D11021012E00D00839DF
:106870000A4B69431868C00000F0E6FA0722A389B2
:106880000240DB045203DB0C1343A3810304A08901
:10689000DB0C400B40031843A081F8BD84000020AE
:1068A0000120704710B50368014A1B6A984710BD64
:1068B000130400000300FC33D9699A69914203D0A4
:1068C000DB69C018007D704701204042FBE710B52E
:1068D00004000069FFF708FF22000023FC329361E7
:1068E000D36186229200A4186360A36010BDF020DB
:1068F00001403039484248417047F0231B0119409C
:10690000802306209B0099420AD00133FF330130D7
:10691000994205D0802302385B00994200D00020C4
:1069200070470F2001400020012903D00239481E82
:106930008141481C704700008923F0B5182685B0B6
:1069400002919B000400C05C330008214343324D98
:106950001700EB185956FFF775FD304B0821E05C26
:1069600033004343EB185956FFF76CFD2C4BE25CA8
:106970000393022A09D11133E05CFF2805D00821D6
:106980004643AE197156FFF75DFD8A26B600A05D3D
:10699000FF2819D00121FFF7C5FC1822A35D21496A
:1069A0005A43AB56AD18DB0158188B218900605053
:1069B0001D4901225B188C218900635069688A4057
:1069C0008D21890062501A600122029B110020690A
:1069D000FFF734FF39002000FFF78FFF3900050073
:1069E0002000FFF79EFF390006002000FFF77FFF21
:1069F00033000090290020690122FFF749FE0B4B6C
:106A00002069E25C039BE15CFFF75CFE2069FFF715
:106A100077FE05B0F0BDC04614B4000025020000AA
:106A200027020000184400411444004126020000DF
:106A3000802210B504005200002102F0C3F92300A7
:106A40000022FC335A6020009A6010BDF0B585B07A
:106A50001D000AAB1B78040000930BAB1B781600DB
:106A600001930CAB1B780F0002930DAB1B780393C3
:106A700000234360FA239B008360124B08330360BA
:106A80001430FFF7D5FF20001D30FF30FFF7D0FF97
:106A900089236A469B002761E6540B4B1278E55424
:106AA0000A4B2000E2546A46094B1279E2546A46C6
:106AB000127A0133E2546A46127B1033E25405B075
:106AC000F0BDC04674B70000250200002602000099
:106AD00027020000F7B51D0008AB1B7804000093E7
:106AE00009AB1B781600019300234360FA239B0037
:106AF0008360114B0F00083303601430FFF798FFD9
:106B000020001D30FF30FFF793FF89236A469B006A
:106B10002761E654094B1278E554094B2000E254F2
:106B20006A46084B1279E2548A22293BFF3B9200C5
:106B3000A3541032A354FEBD74B700002502000018
:106B400026020000270200000300FC3358689B68FF
:106B5000C01A01D50130FF30704710B50400200085
:106B60001D30FF30FFF7F0FF0028F8D12069FFF754
:106B7000D0FD10BD10B51430FFF7E6FF10BD0300C7
:106B8000FC3359689A68914204DB5A689868801A05
:106B9000FF30704798685B68C01A0138F9E710B594
:106BA0001D30FF30FFF7EBFF10BD10B5040000698A
:106BB000FFF7CBFD002805D02069FFF7D6FD20693F
:106BC000FFF7C8FD2069FFF7B0FD002820D020693D
:106BD000FFF7CBFD2200FC329369D1690133DBB2B0
:106BE0008B4203D091696118087593618A239B00D9
:106BF000E35CFF2B0CD020001430FFF7C0FF092806
:106C000006DC8B238D229B009200E358A2581A6069
:106C10002069FFF7A5FD00281AD020001D30FF30A5
:106C2000FFF792FF002822D086239B00E318996883
:106C30005A68914218D08E219A684900A218515C76
:106C40009A680132D2B29A60C9B22069FFF791FD09
:106C50002069FFF76FFD002805D02069FFF76EFD62
:106C60002069FFF75EFD10BD01214942ECE7206974
:106C7000FFF78BFDECE7000070B5040000690D0024
:106C8000FFF76EFD002824D1FF2686239B00E31822
:106C90005A689968013232408A422FD1EFF310834B
:106CA000DB070DD41E4B5B68DB05DB0DEDD0103B25
:106CB0005BB2002B19DB9B08C0331A4A9B009B5820
:106CC0002069FFF74DFD0028DFD02000FFF76DFFA2
:106CD000DBE720001D30FF30FFF736FF0028D3D15F
:106CE00029002069FFF745FD17E00F221340083BFC
:106CF0009B080D4A9B009B181B68E1E75A6801320C
:106D000016409A68964205D08E215A684900A2180A
:106D100055545E602069FFF734FD012070BDC04608
:106D200000ED00E000E100E01CED00E00300FC33BA
:106D3000D9699A6970B5040091421AD0DA6982184B
:106D4000157DDA690132D2B2DA618A239B00E35CF5
:106D5000FF2B0CD020001430FFF711FF0A2806DDAE
:106D60008C238D229B009200E358A2581A602800C1
:106D700070BD01256D42E8E770B50E00002544683E
:106D8000002C0BD0236831005B6820009847002856
:106D900002DB2D18E468F3E701256D42280070BD81
:106DA00070B50D004468002C08D0236829009B684A
:106DB00020009847002802D1E468F4E7200070BD65
:106DC00070B50D004468002C07D02368290020000E
:106DD000DB689847E4682D18F5E72C7070BD70B536
:106DE0000D004468002C08D0236829001B6820008F
:106DF0009847002802D1E468F4E7200070BD000045
:106E00000121064A10B5136805480B4005D102243C
:106E10000470241944704360116010BD2C100020D0
:106E2000301000200B0010B50100180001F044FFE5
:106E300010BD000002B4714649084900095C4900D0
:106E40008E4402BC7047C046002243088B4274D374
:106E500003098B425FD3030A8B4244D3030B8B425B
:106E600028D3030C8B420DD3FF22090212BA030C64
:106E70008B4202D31212090265D0030B8B4219D345
:106E800000E0090AC30B8B4201D3CB03C01A524165
:106E9000830B8B4201D38B03C01A5241430B8B42AD
:106EA00001D34B03C01A5241030B8B4201D30B0396
:106EB000C01A5241C30A8B4201D3CB02C01A5241BD
:106EC000830A8B4201D38B02C01A5241430A8B4280
:106ED00001D34B02C01A5241030A8B4201D30B0269
:106EE000C01A5241CDD2C3098B4201D3CB01C01A83
:106EF000524183098B4201D38B01C01A524143098D
:106F00008B4201D34B01C01A524103098B4201D37A
:106F10000B01C01A5241C3088B4201D3CB00C01AE7
:106F2000524183088B4201D38B00C01A524143085F
:106F30008B4201D34B00C01A5241411A00D2014684
:106F4000524110467047FFE701B5002000F0F0F80D
:106F500002BDC0460029F7D076E7704703460B43D1
:106F60007FD4002243088B4274D303098B425FD342
:106F7000030A8B4244D3030B8B4228D3030C8B426E
:106F80000DD3FF22090212BA030C8B4202D3121254
:106F9000090265D0030B8B4219D300E0090AC30B29
:106FA0008B4201D3CB03C01A5241830B8B4201D3D6
:106FB0008B03C01A5241430B8B4201D34B03C01ABF
:106FC0005241030B8B4201D30B03C01A5241C30A37
:106FD0008B4201D3CB02C01A5241830A8B4201D3A8
:106FE0008B02C01A5241430A8B4201D34B02C01A92
:106FF0005241030A8B4201D30B02C01A5241CDD237
:10700000C3098B4201D3CB01C01A524183098B4281
:1070100001D38B01C01A524143098B4201D34B016A
:10702000C01A524103098B4201D30B01C01A5241CD
:10703000C3088B4201D3CB00C01A524183088B4254
:1070400001D38B00C01A524143088B4201D34B003D
:10705000C01A5241411A00D20146524110467047AF
:107060005DE0CA0F00D04942031000D340425340B4
:1070700000229C4603098B422DD3030A8B4212D374
:10708000FC22890112BA030A8B420CD389019211A6
:107090008B4208D3890192118B4204D389013AD0E3
:1070A000921100E08909C3098B4201D3CB01C01AB8
:1070B000524183098B4201D38B01C01A52414309CB
:1070C0008B4201D34B01C01A524103098B4201D3B9
:1070D0000B01C01A5241C3088B4201D3CB00C01A26
:1070E000524183088B4201D38B00C01A5241D9D23E
:1070F00043088B4201D34B00C01A5241411A00D2BF
:107100000146634652415B10104601D34042002BBA
:1071100000D54942704763465B1000D3404201B539
:10712000002000F005F802BD0029F8D016E77047EE
:107130007047C0468446101C62468C46191C634644
:1071400000E0C0461FB500F015FF002801D4002163
:10715000C8421FBD10B500F06FFE4042013010BDA7
:1071600010B500F007FF002801DB002010BD012052
:1071700010BDC04610B500F0FDFE002801DD002066
:1071800010BD012010BDC04610B500F08FFE0028D4
:1071900001DC002010BD012010BDC04610B500F07C
:1071A00085FE002801DA002010BD012010BDC04678
:1071B000F8B54546DE4657464E460C03E0B54E0050
:1071C000C90F88460D00610A440F0C43C70019031C
:1071D0005800DB0F9B464B0A510F0B43760D400DB9
:1071E0001900D200D84500D1AEE0351A002D00DCE0
:1071F000F6E000280FD1134300D1DBE06B1E002B1B
:1072000000D037E1BA1A9742BF41641A7F42E41BAB
:107210000126170024E0C64B9E424DD080231B045C
:107220001943382D00DD07E11F2D00DD38E1202056
:10723000431B9A460B00504683409946130048462C
:10724000EB401843030050468240501E8241E94003
:107250001A43BA1A611A9742A441170064420C1BE0
:10726000230262D56402650A002D00D1DFE0280008
:1072700001F004FD0300083B1F2B00DDD2E02022BB
:107280003C00D21A9D40D4409F4025439E4200DDE1
:10729000C4E09E1B731C1F2B00DDF1E02022380090
:1072A0002900D21AD840914097402C000143781E03
:1072B0008741DC4000260F437B0709D00F233B406A
:1072C000042B05D03B1DBB42BF417F42E4191F0088
:1072D00023022CD5964B01369E4200D19AE04546BA
:1072E000944BFF081C406007760564020743240B9B
:1072F000760D00212403230B0C0D8F4A24051C431B
:107300001440330523435B00ED075B082B43380033
:1073100019003CBC90469946A246AB46F8BD64466F
:10732000044300D111E2040067467B07C6D14546FD
:107330006007FF080743E4087D4B9E4230D02403DA
:107340007605240B760DD4E7331A9A46002B78DDA8
:10735000002831D076488642AED080200004014318
:107360005346382B00DCE9E00A43511E8A410021D4
:10737000D219BA42BF4109197C4217000C192302E5
:10738000D3D56B4B01369E4200D13AE10120694BC7
:107390001C407B0807401F43E007074364088BE756
:1073A00023003B4300D1CBE180221203144324038A
:1073B000240B9EE72E007FE70800104300D1B4E0C5
:1073C000581E002800D0DEE0BA18BA429B4164186B
:1073D0005B42E418170001262302A6D50226D5E752
:1073E000002D6ED1701C4005400D012800DCF9E035
:1073F000B81A844687428041E51A40422D1A280275
:1074000000D489E0D71BBA4292411C1B5242A51AF4
:10741000D84629E74546002400276AE7454CF61A76
:107420002C4049E73D002838854000272EE73800EA
:1074300001F024FC20301DE70A43511E8A4100213F
:1074400007E7002B00D0F3E0701C43055B0D012B18
:1074500000DCADE0364B984200D1D1E0BA18BA4218
:10746000BF4164187F42E419E707520817436408D4
:10747000060021E72E48854200D193E01D00D0E6AA
:1074800029001F3EF140202B00D18DE04022D31A6D
:107490009D402F437D1EAF4100240F43002644E74B
:1074A0002B000800203BD8400300202D00D17DE0B8
:1074B0004020451BA9400A43511E8A4100211A431E
:1074C000C7E6002E50D01A4EB04257D080266B42ED
:1074D0009946360434434B46382B00DDD6E01F2B4B
:1074E00000DD35E12026F51A2600AE40B2463E000A
:1074F000DE40AC46350056462E436546AF407D1E05
:10750000AF41DC403743D71BBA4292410C1B524279
:10751000A41A0600D846A3E6644667462C4300D06A
:10752000A2E600250026002706E71E00C4E6C046A6
:10753000FF070000FFFF7FFFFFFF0F801F2B63DCB3
:107540002020C31A080098409C46834653461000EA
:10755000D84003005846184363469A40531E9A4148
:1075600053460243D94003E726003E4306D0EB438F
:107570009946002BC7D0944EB042ACD10C001700F6
:107580000600D84698E6904B9A450BD08246E7E62F
:10759000002800D09EE01800104300D1E9E01C0054
:1075A0001700D846884E87E6002572E7002182E75B
:1075B00023003B43002E00D0ABE0002B00D1E7E0DE
:1075C0000B00134300D177E6BA18BA42BF416418E2
:1075D0007F42E419230200D4F2E07C4B17001C40E8
:1075E000060069E620003843002ED1D100285BD187
:1075F0001C00144300D1A8E01C001700D8465BE62D
:1076000006000024002797E650460B002038C340B0
:1076100099465346202B00D195E0402350461B1A33
:1076200099400A43511E8A414B4600211A439FE666
:10763000002E30D126003E4367D0DB439A46002B14
:107640001CD0614EB04260D05346382B00DD96E02E
:107650001F2B00DD9FE02026F31A26009E409C464B
:10766000B34653463E00DE4033005E461E4363464B
:107670009F407B1E9F415346DC403743BF189742D3
:10768000924164185242A418060078E627437C1EF3
:10769000A741002437E74C4EB04236D080265B42EB
:1076A00036049A463443CFE71800104300D103E66E
:1076B000B81A84466745AD41E01A6D42401B050289
:1076C00000D42CE6D71BBA4292411C1B5242A41A8A
:1076D000D846F1E51800104300D163E7F8086707C2
:1076E00007438020E4080003044208D0DD08054277
:1076F00005D1D208590711430F002C00D8467B0F43
:10770000E4001C43FF00304ED6E50C0017000600D5
:10771000D2E5002B38D00B00134300D142E7F80824
:10772000670707438020E40800030442E7D0CB0842
:107730000342E4D1D208490711430F001C00DEE7E1
:1077400000270024D5E500216BE700250027F3E59D
:107750004E462500203EF5404B462E00202B2DD0D6
:107760004025ED1AAC4027437C1EA7410024374337
:10777000C9E6802400252403134E0027DCE52743B7
:107780007C1EA741002479E70C0017000E4E93E5FC
:107790000C00170090E556462300203EF340994622
:1077A0005346202B0ED0402356469B1B9C4027431C
:1077B0007C1EA7414B4600241F435FE70024D2E70D
:1077C0001700B2E50024F2E7FF070000FFFF7FFF8C
:1077D000F0B557464546DE464E46E0B54C000E0332
:1077E00087B0834692461D008046360B640DCF0F4E
:1077F000002C4FD06F4B9C4235D08023420F1B048E
:10780000F600134333439946C30098466A4B00265B
:107810009C460023644403932B031B0B9B466B0085
:10782000ED0F50465B0D01955ED0624A934253D0F6
:107830005A46D1008022400F120402430A43934665
:107840005246D1005C4A94460022634438006840A6
:1078500084460290E41A16430F2E00D9B4E0574B29
:10786000B6009B599F460300334399466CD10023D1
:107870009846023308260393CEE7CB464146039A47
:107880000197022A65D1019B4A4C9C4600230022A5
:1078900098466BE00300334399464ED0002E00D14A
:1078A000BCE1300001F0EAF903000B3B1C2B00DDCA
:1078B000ACE11D22D31A5A460100DA4008398E4045
:1078C0001300334399465B468B40984600233C4C5B
:1078D0000026241A03939FE751465A46114329D1A3
:1078E000002293460232B1E7594601431ED05B465F
:1078F000002B00D19EE1584601F0C0F903000B3B7C
:107900001C2B00DD8FE102005946083A91408B465E
:107910001D21CB1A5146D9400B0059460B43514605
:107920009B469140264B00221B1A8FE70023012221
:107930009B468BE75146032288E700239846013394
:1079400004260024039367E70323B14603930C2620
:1079500062E7032A00D15CE2019B012A00D0E4E146
:1079600013409C4600230024002298460021120365
:10797000130B0A0D12051A432305124C40462240F0
:10798000134362465B00D2075B081343190007B03C
:107990003CBC90469946A246AB46F0BD00238022EF
:1079A0009C4612039846034CE0E70023014C00225A
:1079B0009846DBE7FF07000001FCFFFFA8B70000C7
:1079C0000DFCFFFFFFFF0F80D94500D939E100D141
:1079D00034E1002346464D469A46013C5B460A0E7A
:1079E0001B021A430B02170C039313041B0C3900E0
:1079F000280090460193FFF727FA0200019B834677
:107A00005A43280039009146FFF7A4FA350C0904BF
:107A10000D43A9450DD95B464544013BA84500D916
:107A20003AE1A94500D837E102235B429C46454430
:107A3000E3444B46EB1A390018000493FFF704FAAD
:107A4000019B05004343390004989946FFF782FAE9
:107A5000330409041B0C0B43994509D943446A1E9E
:107A6000984500D91AE1994500D817E1023D4344F1
:107A70004A469B1A5A4612042A4303999346100C0D
:107A80000A0C914609045A46090C4E460D00120490
:107A9000120C4543059151437243704352190E0C29
:107AA000B218954203D980256D02AC466044150C8E
:107AB00009041204090C28185218834200D2CEE09F
:107AC00000D1C8E01D1A53469E1AB2459241524257
:107AD000AB1A9A46984500D117E139001800FFF714
